S00C0000636F64652E737265637D
S11300000C94FE000C941F010C941F010C941F010E
S11300100C941F010C941F010C941F010C941F01DC
S11300200C941F010C941F010C941F010C941F01CC
S11300300C941F010C941F010C941F010C941F01BC
S11300400C941F010C941F010C941F010C941F01AC
S11300500C941F010C941F010C941F010C941F019C
S11300600C941F010C941F010C941F010C941F018C
S11300700C941F010C941F010C941F010C941F017C
S11300800C941F010C941F010C941F010C941F016C
S11300900C941F010C941F010C941F010C941F015C
S11300A00C941F010C941F010C941F010C946D03FC
S11300B00C941F010C941F010C941F010C941F013C
S11300C00C941F010C941F010C941F010C941F012C
S11300D00C941F010C941F010C941F010C941F011C
S11300E00C941F010C941F010C941F010C941F010C
S11300F00C941F010C941F010C941F010C941F01FC
S11301000C943F030C941F010C949F030C941F0147
S11301100C941F010C941F010C941F010C941F01DB
S11301200C941F010C941F010C941F010C941F01CB
S11301300C941F010C94AB030C941F010C941F012D
S11301400C941F010C941F010C941F010C941F01AB
S11301500C941F010C941F010C941F010C941F019B
S11301600C941F010C941F010C941F010C941F018B
S11301700C941F010C941F010C941F010C941F017B
S11301800C941F010C941F010C941F010C941F016B
S11301900C941F010C941F010C941F010C941F015B
S11301A00C9435030C941F010C941F010C941F0133
S11301B00C941F010C941F010C941F010C941F013B
S11301C00C941F010C941F010C941F010C941F012B
S11301D00C941F010C941F010C941F010C941F011B
S11301E00C941F010C941F010C941F010C941F010B
S11301F00C941F010C941F010C941F0111241FBEA9
S1130200CFEFCDBFDFE5DEBF00E00CBF10E2A0E022
S1130210B0E2E0EFFCE000E00BBF02C007900D92FB
S1130220AA32B107D9F720E2AAE2B0E201C01D92D6
S1130230A133B207E1F70E94FA020C9476060C94FB
S11302400000E0E5F0E08BEC8283808188608083AD
S1130250818183FFFDCFE0E5F0E082EC858380813E
S113026080618083818184FFFDCF88ED84BF84E039
S113027080934000E0E5F0E080818E7F8083808180
S11302808D7F80830895CF93DF93C0E0D6E092E022
S11302909A8341E040932106A0E6B6E03FEF129630
S11302A03C931297E0E8F6E02FE02283198A8AE172
S11302B050968C93509751968C93519752968C9359
S11302C0529753968C93539754968C935497559670
S11302D08C93559756968C93569757968C9357971D
S11302E0808B818B828B838B848B858B868B878B96
S11302F09A8749871A963C931A9719969C93228752
S11303009187DF91CF91089583E08093A106E0E087
S1130310FBE08FE097E286A397A384E0808383E3E6
S1130320818310A611A612A613A68AE090E084A7E2
S113033095A70895E0E0F9E0108281E0868383E0E8
S113034081838FEF9FEF86A397A308950E949A015C
S11303500E94840108958FE99FE00197F1F700C09E
S11303600000809168068F3EC9F038F48F3BD1F0CD
S11303708F3DB1F08F37D1F417C08B3F59F018F48B
S1130380873F51F013C08D3F19F08E3F89F00EC0A6
S113039082E0089583E0089584E0089585E0089557
S11303A086E0089587E0089588E008958DE0089533
S11303B081E008958FE99FE00197F1F700C0000004
S11303C0809188068B3F59F018F4873F51F00BC099
S11303D08D3F19F08E3F49F006C080E008958AE011
S11303E008958BE008958DE0089589E00895CF93F2
S11303F0DF93CDB7DEB72597CDBFDEBF25E0E3E1C0
S1130400F0E2DE01119601900D922A95E1F7FE01CA
S11304103196AE014A5F5F4F2191DC012D93CD01EE
S1130420E417F507C9F72596CDBFDEBFDF91CF915D
S11304300895982F8A30D9F4909105208091002056
S113044098134CC0E6E0F0E2A1E0B0E22AE030E22A
S113045091918D91981344C0E217F307C9F780E096
S113046090E20E94F70110922A2081E008958B30D7
S113047021F410922A2080E0089580912A2085306A
S113048019F510922A20E0E0FBE02AEF30E022AFD9
S113049033AF20AF31AF4FEF57E893E141505040B5
S11304A09040E1F700C0000012AE13AE10AE11AEE2
S11304B04FEF53EC99E0415050409040E1F700C0B9
S11304C00000815021F70895E82FF0E0E050F04E4D
S11304D090838F5F80932A2080E0089582E00895BE
S11304E082E008958130B1F4809325062FEF33EC38
S11304F049E0215030404040E1F700C000008AEF5D
S113050090E08093380B9093390B87E08093000937
S113051081E0089581113AC0E0E0FBE08AEF90E0C9
S113052082AF93AF80AF91AF2FEF31EE44E0215013
S113053030404040E1F700C0000012AE13AE10AEF0
S113054011AE2FEF31EE44E0215030404040E1F74E
S113055000C0000082AF93AF80AF91AF8FEF91EEF8
S113056024E0815090402040E1F700C0000012AE2A
S113057013AE10AE11AE3FEF41EE84E03150404077
S11305808040E1F700C0000080E008958AEF90E029
S113059080933A0B90933B0B87E08093000980E0B3
S11305A008950E9432060E94090668E080E30E94D2
S11305B0AD0584E00E947B0580E20E9489058CE001
S11305C00E949F0586E30E94630581E00E946F05F7
S11305D00E9440050E9404060E9475040E9484043F
S11305E08BE090E20E94CA046BE070E280E00E941B
S11305F0E80408950E9421010E9443010E94A6017B
S11306000E94D1020E945A0681E080934800E0EAE9
S1130610F0E08281836082837894E0E0FBE08AEFFB
S113062090E082AF93AF2FEF83ED90E321508040B1
S11306309040E1F700C0000012AE13AE80910A2092
S1130640882319F0813039F00CC061E08AE090E22F
S11306500E94FE05F3CF61E08AE090E20E94FE056D
S1130660EDCF81E080930A20E9CF1F920F920FB65D
S11306700F9211240F900FBE0F901F9018951F9288
S11306800F920FB60F9211240BB60F922F933F9334
S11306904F935F936F937F938F939F93AF93BF9386
S11306A0EF93FF93F8940E94AB010E9419020E94F9
S11306B072027894FF91EF91BF91AF919F918F91C6
S11306C07F916F915F914F913F912F910F900BBE4E
S11306D00F900FBE0F901F9018951F920F920FB698
S11306E00F9211240BB60F922F933F934F935F9366
S11306F06F937F938F939F93AF93BF93EF93FF93E6
S1130700F8940E94DA010E9419020E947202813058
S113071011F480930A207894FF91EF91BF91AF91E7
S11307209F918F917F916F915F914F913F912F9105
S11307300F900BBE0F900FBE0F901F9018951F9235
S11307400F920FB60F92112410920A200F900FBE31
S11307500F901F9018951F920F920FB60F921124AD
S11307600BB60F928F93EF93FF9381E0809326064D
S1130770E0E0FBE012AE13AE10AE11AEFF91EF91CC
S11307808F910F900BBE0F900FBE0F901F90189576
S11307901F93CF93DF93C0EAD6E010E21E838F71DC
S11307A00E944C068FEF0E944C061D83DF91CF916F
S11307B01F910895DF92EF92FF920F931F93CF93AF
S11307C0DF937B01C42F90E29093A6068F71806221
S11307D00E944C06D82E8FEF8C0FCC2369F0E701D2
S11307E0082F10E00F5F1F4F0E0D1F1D89910E94EF
S11307F04C06C017D107D1F780E28093A5068D2D52
S1130800DF91CF911F910F91FF90EF90DF900895AA
S1130810FF920F931F93CF93DF93F62EC0EAD6E097
S113082010E21E838F7180620E944C06082F8F2D68
S11308300E944C061D83802FDF91CF911F910F9151
S1130840FF900895BF92CF92DF92EF92FF920F93A1
S11308501F93CF93DF936C01842FC09111201C2F21
S11308606C1708F4162F90913020911125C00C2F8D
S1130870011B90E29093A6060E944C06B82EEE242B
S1130880EA94E10E111102C00EC000E0E601F12C61
S11308908FEFE81AF80AEC0CFD1C89910E944C06B3
S11308A0EC16FD06D1F7002391F0C02F80E00E94E2
S11308B04C06C150D9F70BC090E29093A6060E9453
S11308C04C06B82EEE24EA94E10E1111DECF80E23C
S11308D08093A5068B2DDF91CF911F910F91FF90EF
S11308E0EF90DF90CF90BF9008951F93CF93DF9345
S11308F0C0EAD6E010E21E8382EE0E944C061D83FD
S1130900DF91CF911F9108951F93CF93DF93C0EA96
S1130910D6E010E21E8381EE0E944C061D83DF9117
S1130920CF911F9108950F931F93CF93DF93EC0101
S1130930162F042F80E00E94C80381FD0DC0682F8C
S11309406E7F626080E00E9408048FE79EE3019757
S1130950F1F700C0000005C0682F6E7F80E00E94A0
S113096008048FE094E00197F1F700C00000402FE5
S1130970612FCE010E942204E0EAF6E080E885833C
S11309809AE69A95F1F700C08683DF91CF911F9183
S11309900F910895CF93DF93EC0140911020BC0197
S11309A08AE00E94DA0340911020BE0180E10E9497
S11309B0DA0360911120603220F481E10E9408047E
S11309C004C060E281E10E940804DF91CF910895A0
S11309D00F931F93CF93DF93C82F8B01811108C00E
S11309E04091102050E08BE290E20E946D0604C01A
S11309F0873078F5823058F4EC2FF0E0EC5DFF4D51
S1130A0040911020B80180810E94DA0308C0E82FC9
S1130A10F0E0EC5DFF4D41E080810E94DA03D0E01C
S1130A20FE01E25EFF4D6091112080810E94080466
S1130A3082E00E94C803C85EDF4D61E070E0088078
S1130A4002C0660F771F0A94E2F7682B82E00E94C7
S1130A500804DF91CF911F910F9108951F93CF93B5
S1130A60DF93C0EAD6E010E21E8380E50E944C06C4
S1130A7083E70E944C061D83DF91CF911F91089557
S1130A808DE10E94C803682F64608DE10E94080410
S1130A908DE10E94C80381110AC00E942E058DE1D8
S1130AA00E94C803682F64608DE10E9408048CE1F1
S1130AB00E94C803682F6F638CE10E94080481E0E0
S1130AC080933020089588232CF0682F85E00E94BD
S1130AD0080408956FE785E00E94080408958823B8
S1130AE029F06FE381E00E940804089560E081E04A
S1130AF00E9408040895CF93C82F86E00E94C8037B
S1130B00897FC670682F6C2B86E00E940804CF9101
S1130B100895CF93C82F86E00E94C803877D9C2F39
S1130B209872682F692B86E00E94080486E00E9470
S1130B30C80391E0C81390E0892FCF910895CF9313
S1130B40C82F80E00E94C803837FCC70682F6C2B71
S1130B5080E00E940804CF910895682B84E00E94ED
S1130B600804089584E00E94C803282F22952F705A
S1130B7030E02F5F3F4F9AEF929FA001939F500D5B
S1130B8011248F7090E001969C01429FC001439F05
S1130B90900D529F900D11240895CF93DF930E94DE
S1130BA0B2059C013695279536952795ABE7B4E1B8
S1130BB00E945E06EC01D695C795209771F087E0F8
S1130BC00E94C8032197EFE1F3E03197F1F700C0E9
S1130BD00000807311F4209791F787E00E94C80306
S1130BE0C82F0E9475040E94840460E787E00E9475
S1130BF008048C2F8072DF91CF91089540EA0E94FF
S1130C0093040E94CD05089560E787E00E940804DC
S1130C1008958FE39CE90197F1F700C000006FE5A8
S1130C2084E00E94080486E00E947B0580E20E9422
S1130C308905882319F081E08093122080E00E94C6
S1130C4089058CE00E949F0560E08CE10E94080405
S1130C508CE40E9463050E9404060E9475040E94AD
S1130C6084040895E0E4F6E088E0818384E08283EC
S1130C7082E08183E0EAF6E080E2818380E482839B
S1130C8080E88183E0EAF8E088E1848380EC85836E
S1130C90178281E0868308958093A008E0EAF8E053
S1130CA0818186FFFDCFE0EAF8E081818064818361
S1130CB08081089584E0809348000895A29FB00144
S1130CC0B39FC001A39F700D811D1124911DB29F7C
S1130CD0700D811D1124911D0895FB01DC0102C0DA
S1130CE001900D9241505040D8F70895F894FFCFE9
S1130CF00001010101010101010101487641303186
S1130D000520010001010101000102030405111283
S10D0D10131415160A0B0C0D0E0F38
S9030000FC
