S00C0000636F64652E737265637D
S11300000C94FE000C941F010C941F010C941F010E
S11300100C941F010C941F010C941F010C941F01DC
S11300200C941F010C941F010C941F010C941F01CC
S11300300C941F010C941F010C941F010C941F01BC
S11300400C941F010C941F010C941F010C941F01AC
S11300500C941F010C941F010C941F010C941F019C
S11300600C941F010C941F010C941F010C941F018C
S11300700C941F010C941F010C941F010C941F017C
S11300800C941F010C941F010C941F010C941F016C
S11300900C941F010C941F010C941F010C941F015C
S11300A00C941F010C941F010C941F010C94680301
S11300B00C941F010C941F010C941F010C941F013C
S11300C00C941F010C941F010C941F010C941F012C
S11300D00C941F010C941F010C941F010C941F011C
S11300E00C941F010C941F010C941F010C941F010C
S11300F00C941F010C941F010C941F010C941F01FC
S11301000C943A030C941F010C949A030C941F0151
S11301100C941F010C941F010C941F010C941F01DB
S11301200C941F010C941F010C941F010C941F01CB
S11301300C941F010C94A6030C941F010C941F0132
S11301400C941F010C941F010C941F010C941F01AB
S11301500C941F010C941F010C941F010C941F019B
S11301600C941F010C941F010C941F010C941F018B
S11301700C941F010C941F010C941F010C941F017B
S11301800C941F010C941F010C941F010C941F016B
S11301900C941F010C941F010C941F010C941F015B
S11301A00C9430030C941F010C941F010C941F0138
S11301B00C941F010C941F010C941F010C941F013B
S11301C00C941F010C941F010C941F010C941F012B
S11301D00C941F010C941F010C941F010C941F011B
S11301E00C941F010C941F010C941F010C941F010B
S11301F00C941F010C941F010C941F0111241FBEA9
S1130200CFEFCDBFDFE5DEBF00E00CBF10E2A0E022
S1130210B0E2EEEDFCE000E00BBF02C007900D92EF
S1130220AA32B107D9F720E2AAE2B0E201C01D92D6
S1130230A133B207E1F70E94FA020C946D060C9404
S11302400000E0E5F0E08BEC8283808188608083AD
S1130250818183FFFDCFE0E5F0E082EC858380813E
S113026080618083818184FFFDCF88ED84BF84E039
S113027080934000E0E5F0E080818E7F8083808180
S11302808D7F80830895CF93DF93C0E0D6E092E022
S11302909A8341E040932106A0E6B6E03FEF129630
S11302A03C931297E0E8F6E02FE02283198A8AE172
S11302B050968C93509751968C93519752968C9359
S11302C0529753968C93539754968C935497559670
S11302D08C93559756968C93569757968C9357971D
S11302E0808B818B828B838B848B858B868B878B96
S11302F09A8749871A963C931A9719969C93228752
S11303009187DF91CF91089583E08093A106E0E087
S1130310FBE08FE097E286A397A384E0808383E3E6
S1130320818310A611A612A613A68AE090E084A7E2
S113033095A70895E0E0F9E0108281E0868383E0E8
S113034081838FEF9FEF86A397A308950E949A015C
S11303500E94840108958FE99FE00197F1F700C09E
S11303600000809168068F3EC9F038F48F3BD1F0CD
S11303708F3DB1F08F37D1F417C08B3F59F018F48B
S1130380873F51F013C08D3F19F08E3F89F00EC0A6
S113039082E0089583E0089584E0089585E0089557
S11303A086E0089587E0089588E008958DE0089533
S11303B081E008958FE99FE00197F1F700C0000004
S11303C0809188068B3F59F018F4873F51F00BC099
S11303D08D3F19F08E3F49F006C080E008958AE011
S11303E008958BE008958DE0089589E00895CF93F2
S11303F0DF93CDB7DEB72597CDBFDEBF25E0E3E1C0
S1130400F0E2DE01119601900D922A95E1F7FE01CA
S11304103196AE014A5F5F4F2191DC012D93CD01EE
S1130420E417F507C9F72596CDBFDEBFDF91CF915D
S11304300895982F8A30D9F4909105208091002056
S113044098134CC0E6E0F0E2A1E0B0E22AE030E22A
S113045091918D91981344C0E217F307C9F780E096
S113046090E20E94F70110922A2081E008958B30D7
S113047021F410922A2080E0089580912A2085306A
S113048019F510922A20E0E0FBE02AEF30E022AFD9
S113049033AF20AF31AF4FEF57E893E141505040B5
S11304A09040E1F700C0000012AE13AE10AE11AEE2
S11304B04FEF53EC99E0415050409040E1F700C0B9
S11304C00000815021F70895E82FF0E0E050F04E4D
S11304D090838F5F80932A2080E0089582E00895BE
S11304E082E008958130B1F4809325062FEF33EC38
S11304F049E0215030404040E1F700C000008AEF5D
S113050090E08093380B9093390B87E08093000937
S113051081E0089581113AC0E0E0FBE08AEF90E0C9
S113052082AF93AF80AF91AF2FEF31EE44E0215013
S113053030404040E1F700C0000012AE13AE10AEF0
S113054011AE2FEF31EE44E0215030404040E1F74E
S113055000C0000082AF93AF80AF91AF8FEF91EEF8
S113056024E0815090402040E1F700C0000012AE2A
S113057013AE10AE11AE3FEF41EE84E03150404077
S11305808040E1F700C0000080E008958AEF90E029
S113059080933A0B90933B0B87E08093000980E0B3
S11305A008950E942D060E94040668E080E30E94DC
S11305B0A80584E00E94760580E20E9484058CE010
S11305C00E949A0586E30E945E0581E00E946A0506
S11305D00E943B050E94FF050E9470040E947F0454
S11305E08BE090E20E94C5046BE070E280E00E9420
S11305F0E30408950E9421010E9443010E94A60180
S11306000E94D102E0EAF0E08281836082837894E0
S1130610E0E0FBE08AEF90E082AF93AF2FEF83ED51
S113062090E3215080409040E1F700C0000012AEFA
S113063013AE80910A20882319F0813039F00CC060
S113064061E08AE090E20E94F905F3CF61E08AE07C
S113065090E20E94F905EDCF81E080930A20E9CF72
S11306601F920F920FB60F9211240F900FBE0F908E
S11306701F9018951F920F920FB60F9211240BB66C
S11306800F922F933F934F935F936F937F938F9327
S11306909F93AF93BF93EF93FF93F8940E94AB01A2
S11306A00E9419020E9472027894FF91EF91BF9107
S11306B0AF919F918F917F916F915F914F913F91F6
S11306C02F910F900BBE0F900FBE0F901F90189597
S11306D01F920F920FB60F9211240BB60F922F9305
S11306E03F934F935F936F937F938F939F93AF93B6
S11306F0BF93EF93FF93F8940E94DA010E941902CA
S11307000E947202813011F480930A207894FF9140
S1130710EF91BF91AF919F918F917F916F915F9175
S11307204F913F912F910F900BBE0F900FBE0F90E2
S11307301F9018951F920F920FB60F9211241092CA
S11307400A200F900FBE0F901F9018951F920F92C2
S11307500FB60F9211240BB60F928F93EF93FF9362
S113076081E080932606E0E0FBE012AE13AE10AE0B
S113077011AEFF91EF918F910F900BBE0F900FBEB2
S11307800F901F9018951F93CF93DF93C0EAD6E084
S113079010E21E838F710E9447068FEF0E94470666
S11307A01D83DF91CF911F910895DF92EF92FF9205
S11307B00F931F93CF93DF937B01C42F90E2909309
S11307C0A6068F7180620E944706D82E8FEF8C0F89
S11307D0CC2369F0E701082F10E00F5F1F4F0E0DC7
S11307E01F1D89910E944706C017D107D1F780E2E7
S11307F08093A5068D2DDF91CF911F910F91FF90CE
S1130800EF90DF900895FF920F931F93CF93DF93A0
S1130810F62EC0EAD6E010E21E838F7180620E9439
S11308204706082F8F2D0E9447061D83802FDF91D6
S1130830CF911F910F91FF900895BF92CF92DF92B5
S1130840EF92FF920F931F93CF93DF936C01842F4A
S1130850C09111201C2F6C1708F4162F9091302092
S1130860911125C00C2F011B90E29093A6060E94C3
S11308704706B82EEE24EA94E10E111102C00EC010
S113088000E0E601F12C8FEFE81AF80AEC0CFD1CED
S113089089910E944706EC16FD06D1F7002391F0DA
S11308A0C02F80E00E944706C150D9F70BC090E2E8
S11308B09093A6060E944706B82EEE24EA94E10E11
S11308C01111DECF80E28093A5068B2DDF91CF91AD
S11308D01F910F91FF90EF90DF90CF90BF900895FC
S11308E01F93CF93DF93C0EAD6E010E21E8382EE1B
S11308F00E9447061D83DF91CF911F9108951F9396
S1130900CF93DF93C0EAD6E010E21E8381EE0E940B
S113091047061D83DF91CF911F9108950F931F9375
S1130920CF93DF93EC01162F042F80E00E94C303C2
S113093081FD0DC0682F6E7F626080E00E94030419
S11309408FE79EE30197F1F700C0000005C0682F10
S11309506E7F80E00E9403048FE094E00197F1F73A
S113096000C00000402F612FCE010E941D04E0EA68
S1130970F6E080E885839AE69A95F1F700C08683CD
S1130980DF91CF911F910F910895CF93DF93EC01E5
S113099040911020BC018AE00E94D50340911020B0
S11309A0BE0180E10E94D50360911120603220F4E1
S11309B081E10E94030404C060E281E10E94030417
S11309C0DF91CF9108950F931F93CF93DF93C82F97
S11309D08B01811108C04091102050E08BE290E21D
S11309E00E94640604C0873078F5823058F4EC2FF6
S11309F0F0E0EC5DFF4D40911020B80180810E9431
S1130A00D50308C0E82FF0E0EC5DFF4D41E08081A4
S1130A100E94D503D0E0FE01E25EFF4D60911120FB
S1130A2080810E94030482E00E94C303C85EDF4DFC
S1130A3061E070E0088002C0660F771F0A94E2F755
S1130A40682B82E00E940304DF91CF911F910F91E4
S1130A5008951F93CF93DF93C0EAD6E010E21E837C
S1130A6080E50E94470683E70E9447061D83DF91C5
S1130A70CF911F9108958DE10E94C303682F646094
S1130A808DE10E9403048DE10E94C30381110AC019
S1130A900E9429058DE10E94C303682F64608DE1E3
S1130AA00E9403048CE10E94C303682F6F638CE1EE
S1130AB00E94030481E080933020089588232CF061
S1130AC0682F85E00E94030408956FE785E00E9483
S1130AD003040895882329F06FE381E00E9403044E
S1130AE0089560E081E00E9403040895CF93C82F25
S1130AF086E00E94C303897FC670682F6C2B86E052
S1130B000E940304CF910895CF93C82F86E00E94DA
S1130B10C303877D9C2F9872682F692B86E00E94FF
S1130B20030486E00E94C30391E0C81390E0892F78
S1130B30CF910895CF93C82F80E00E94C303837F91
S1130B40CC70682F6C2B80E00E940304CF91089531
S1130B50682B84E00E940304089584E00E94C30388
S1130B60282F22952F7030E02F5F3F4F9AEF929FEE
S1130B70A001939F500D11248F7090E001969C0169
S1130B80429FC001439F900D529F900D11240895E0
S1130B90CF93DF930E94AD059C013695279536953A
S1130BA02795ABE7B4E10E945506EC01D695C795AD
S1130BB0209771F087E00E94C3032197EFE1F3E0EF
S1130BC03197F1F700C00000807311F4209791F77A
S1130BD087E00E94C303C82F0E9470040E947F0410
S1130BE060E787E00E9403048C2F8072DF91CF912D
S1130BF0089540EA0E948E040E94C805089560E7A3
S1130C0087E00E94030408958FE39CE90197F1F7BC
S1130C1000C000006FE584E00E94030486E00E94A7
S1130C20760580E20E948405882319F081E0809390
S1130C30122080E00E9484058CE00E949A0560E006
S1130C408CE10E9403048CE40E945E050E94FF056F
S1130C500E9470040E947F040895E0E4F6E088E0B6
S1130C60818384E0828382E08183E0EAF6E080E2AB
S1130C70818380E4828380E88183E0EAF8E088E18C
S1130C80848380EC8583178281E086830895809332
S1130C90A008E0EAF8E0818186FFFDCFE0EAF8E011
S1130CA081818064818380810895A29FB001B39F74
S1130CB0C001A39F700D811D1124911DB29F700D61
S1130CC0811D1124911D0895FB01DC0102C00190D6
S1110CD00D9241505040D8F70895F894FFCF8C
S1130CDE0001010101010101010101487641303198
S1130CEE0520010001010101000102030405111296
S10D0CFE131415160A0B0C0D0E0F4B
S9030000FC
