:100000000C94FE000C941F010C941F010C941F0112
:100010000C941F010C941F010C941F010C941F01E0
:100020000C941F010C941F010C941F010C941F01D0
:100030000C941F010C941F010C941F010C941F01C0
:100040000C941F010C941F010C941F010C941F01B0
:100050000C941F010C941F010C941F010C941F01A0
:100060000C941F010C941F010C941F010C941F0190
:100070000C941F010C941F010C941F010C941F0180
:100080000C941F010C941F010C941F010C941F0170
:100090000C941F010C941F010C941F010C941F0160
:1000A0000C941F010C941F010C941F010C94AC02C2
:1000B0000C941F010C941F010C941F010C941F0140
:1000C0000C941F010C941F010C941F010C941F0130
:1000D0000C941F010C941F010C941F010C941F0120
:1000E0000C941F010C941F010C941F010C941F0110
:1000F0000C941F010C941F010C941F010C941F0100
:100100000C947E020C941F010C94DA020C941F01D3
:100110000C941F010C941F010C941F010C941F01DF
:100120000C941F010C941F010C941F010C941F01CF
:100130000C941F010C941F010C941F010C941F01BF
:100140000C941F010C941F010C941F010C941F01AF
:100150000C941F010C941F010C941F010C941F019F
:100160000C941F010C941F010C941F010C941F018F
:100170000C941F010C941F010C941F010C941F017F
:100180000C941F010C941F010C941F010C941F016F
:100190000C941F010C941F010C941F010C941F015F
:1001A0000C9474020C941F010C941F010C941F01F9
:1001B0000C941F010C941F010C941F010C941F013F
:1001C0000C941F010C941F010C941F010C941F012F
:1001D0000C941F010C941F010C941F010C941F011F
:1001E0000C941F010C941F010C941F010C941F010F
:1001F0000C941F010C941F010C941F0111241FBEAD
:10020000CFEFCDBFDFE5DEBF00E00CBF10E2A0E026
:10021000B0E2E2E5F9E000E00BBF02C007900D920A
:10022000A232B107D9F720E2A2E2B0E201C01D92EA
:10023000AE32B207E1F70E9465020C94A7040C9459
:1002400000008FE99FE00197F1F700C00000809166
:1002500068068F3EC9F038F48F3BD1F08F3DB1F086
:100260008F37D1F417C08B3F59F018F4873F51F006
:1002700013C08D3F19F08E3F89F00EC082E00895C3
:1002800083E0089584E0089585E0089586E0089568
:1002900087E0089588E0089584E1089581E0089555
:1002A0008FE99FE00197F1F700C000008091880678
:1002B0008B3F59F018F4873F51F00BC08D3F19F078
:1002C0008E3F49F006C080E008958AE008958BE0F3
:1002D00008958DE0089589E008958A3009F066C098
:1002E00085E0E0E0FBE02AEF30E020AF31AF4FEFF8
:1002F00053EF91E0415050409040E1F700C00000C2
:1003000010AE11AE4FEF53EF91E04150504090408E
:10031000E1F700C00000815041F79DC010922720F6
:1003200085E0E0E0FBE02AEF30E022AF33AF4FEFB3
:1003300057E893E1415050409040E1F700C0000081
:1003400012AE13AE4FEF57E893E14150504090404A
:10035000E1F700C00000815041F7089521919D917F
:10036000291388C0E417F507C9F785E0E0E0FBE052
:100370002AEF30E020AF31AF4FEF57E893E1415023
:1003800050409040E1F700C0000010AE11AE4FEFBA
:1003900057E893E1415050409040E1F700C0000021
:1003A000815041F71092272081E008958B3021F48D
:1003B0001092272080E0089590912720953011F425
:1003C0001092272090912720E92FF0E0EE5DFF4D5D
:1003D00080839F5F90932720E0E0FBE08AEF90E02E
:1003E00080AF91AF2FEF37E843E1215030404040DC
:1003F000E1F700C0000010AE11AE5FEF27E833E177
:10040000515020403040E1F700C0000080AF91AF74
:100410004FEF57E883E1415050408040E1F700C082
:10042000000010AE11AE9FEF27E833E1915020405D
:100430003040E1F700C0000082E0089520910020E4
:1004400090912220291316C0E1E0F0E2A3E2B0E28D
:1004500045E050E283CF4FEF53ED90E341505040E1
:100460009040E1F700C0000090912720953008F0FF
:1004700055CFE4CF089508950E9476040E944D045C
:1004800068E080E30E94430484E00E94110480E25B
:100490000E941F048CE00E94350486E30E94F90349
:1004A00081E00E9405040E94D6030E9448040E9435
:1004B00042030E94510387E090E20E94600367E0DC
:1004C00070E280E00E947E0308950E943C028091C9
:1004D00005209091062031E020E002C0832F922F6A
:1004E00082309105E8F3FACF1F920F920FB60F9268
:1004F00011240F900FBE0F901F9018951F920F920E
:100500000FB60F9211240BB60F922F933F934F9378
:100510005F936F937F938F939F93AF93BF93EF936B
:10052000FF93F8940E9421010E946D010E943B02FA
:100530007894FF91EF91BF91AF919F918F917F91AF
:100540006F915F914F913F912F910F900BBE0F9044
:100550000FBE0F901F9018951F920F920FB60F921B
:1005600011240BB60F922F933F934F935F936F938A
:100570007F938F939F93AF93BF93EF93FF93F894E1
:100580000E9450010E946D010E943B027894FF91ED
:10059000EF91BF91AF919F918F917F916F915F91FB
:1005A0004F913F912F910F900BBE0F900FBE0F9068
:1005B0001F9018951F920F920FB60F921124109250
:1005C0000520109206200F900FBE0F901F901895D7
:1005D0001F93CF93DF93C0EAD6E010E21E838F71A2
:1005E0000E9490048FEF0E9490041D83DF91CF91B1
:1005F0001F910895DF92EF92FF920F931F93CF9375
:10060000DF937B01C42F90E29093A6068F718062E6
:100610000E949004D82E8FEF8C0FCC2369F0E70155
:10062000082F10E00F5F1F4F0E0D1F1D89910E94B4
:100630009004C017D107D1F780E28093A5068D2DD5
:10064000DF91CF911F910F91FF90EF90DF90089570
:10065000FF920F931F93CF93DF93F62EC0EAD6E05D
:1006600010E21E838F7180620E949004082F8F2DEC
:100670000E9490041D83802FDF91CF911F910F91D5
:10068000FF9008951F93CF93DF93C0EAD6E010E266
:100690001E8382EE0E9490041D83DF91CF911F91F3
:1006A00008951F93CF93DF93C0EAD6E010E21E8334
:1006B00081EE0E9490041D83DF91CF911F910895D8
:1006C000CF93DF93EC0140910C20BC018AE00E94A3
:1006D000FA0240910C20BE0180E10E94FA02609172
:1006E0000D20603220F481E10E94280304C060E202
:1006F00081E10E942803DF91CF9108950F931F930A
:10070000CF93DF93C82F8B01811108C040910C203B
:1007100050E088E290E20E949E0404C0873078F5A1
:10072000823058F4EC2FF0E0E55EFF4D40910C2054
:10073000B80180810E94FA0208C0E82FF0E0E55E6F
:10074000FF4D41E080810E94FA02D0E0FE01EB5EA5
:10075000FF4D60910D2080810E94280382E00E945D
:10076000E802C15FDF4D61E070E0088002C0660F03
:10077000771F0A94E2F7682B82E00E942803DF913A
:10078000CF911F910F9108951F93CF93DF93C0EAEC
:10079000D6E010E21E8380E50E94900483E70E9469
:1007A00090041D83DF91CF911F9108958DE10E94E8
:1007B000E802682F64608DE10E9428038DE10E94A9
:1007C000E80281110AC00E94C4038DE10E94E80280
:1007D000682F64608DE10E9428038CE10E94E8028A
:1007E000682F6F638CE10E94280381E080932D20A5
:1007F000089588232CF0682F85E00E94280308952F
:100800006FE785E00E9428030895882329F06FE3AD
:1008100081E00E942803089560E081E00E9428039F
:100820000895CF93C82F86E00E94E802897FC670A2
:10083000682F6C2B86E00E942803CF910895CF93F8
:10084000C82F86E00E94E802877D9C2F9872682F4F
:10085000692B86E00E94280386E00E94E80291E06E
:10086000C81390E0892FCF910895CF93C82F80E0CF
:100870000E94E802837FCC70682F6C2B80E00E947E
:100880002803CF910895682B84E00E9428030895DF
:1008900060E787E00E94280308958FE39CE90197B1
:1008A000F1F700C000006FE584E00E94280386E0B5
:1008B0000E94110480E20E941F04882319F081E045
:1008C00080930E2080E00E941F048CE00E9435047B
:1008D00060E08CE10E9428038CE40E94F9030E94EE
:1008E00048040E9442030E9451030895E0E4F6E0A8
:1008F00088E0818384E0828382E08183E0EAF6E01D
:1009000080E2818380E4828380E88183E0EAF8E00A
:1009100088E1848380EC8583178281E08683089553
:100920008093A008E0EAF8E0818186FFFDCFE0EA4D
:10093000F8E081818064818380810895FB01DC017E
:1009400002C001900D9241505040D8F70895F8949C
:02095000FFCFD7
:100952000101010101010048764130310520010009
:1009620001020304051112131415160A0B0C0D0EC5
:020972000F0074
:00000001FF
