S00C0000636F64652E737265637D
S11300000C94FE000C941F010C941F010C941F010E
S11300100C941F010C941F010C941F010C941F01DC
S11300200C941F010C941F010C941F010C941F01CC
S11300300C941F010C941F010C941F010C941F01BC
S11300400C941F010C941F010C941F010C941F01AC
S11300500C941F010C941F010C941F010C941F019C
S11300600C941F010C941F010C941F010C941F018C
S11300700C941F010C941F010C941F010C941F017C
S11300800C941F010C941F010C941F010C941F016C
S11300900C941F010C941F010C941F010C941F015C
S11300A00C941F010C941F010C941F010C947703F2
S11300B00C941F010C941F010C941F010C941F013C
S11300C00C941F010C941F010C941F010C941F012C
S11300D00C941F010C941F010C941F010C941F011C
S11300E00C941F010C941F010C941F010C941F010C
S11300F00C941F010C941F010C941F010C941F01FC
S11301000C9434030C941F010C94A5030C941F014C
S11301100C941F010C941F010C941F010C941F01DB
S11301200C941F010C941F010C941F010C941F01CB
S11301300C941F010C94B3030C941F010C941F0125
S11301400C941F010C941F010C941F010C941F01AB
S11301500C941F010C941F010C941F010C941F019B
S11301600C941F010C941F010C941F010C941F018B
S11301700C941F010C941F010C941F010C941F017B
S11301800C941F010C941F010C941F010C941F016B
S11301900C941F010C941F010C941F010C941F015B
S11301A00C942A030C941F010C941F010C941F013E
S11301B00C941F010C941F010C941F010C941F013B
S11301C00C941F010C941F010C941F010C941F012B
S11301D00C941F010C941F010C941F010C941F011B
S11301E00C941F010C941F010C941F010C941F010B
S11301F00C941F010C941F010C941F0111241FBEA9
S1130200CFEFCDBFDFE5DEBF00E00CBF10E2A0E022
S1130210B0E2E8E1FBE000E00BBF02C007900D9202
S1130220A632B107D9F720E2A6E2B0E201C01D92DE
S1130230AD32B207E1F70E94FE020C948A050C94D9
S11302400000E0E5F0E08BEC8283808188608083AD
S1130250818183FFFDCFE0E5F0E082EC858380813E
S113026080618083818184FFFDCF88ED84BF84E039
S113027080934000E0E5F0E080818E7F8083808180
S11302808D7F80830895CF93DF93C0E0D6E092E022
S11302909A8341E040932106A0E6B6E03FEF129630
S11302A03C931297E0E8F6E02FE02283198A8AE172
S11302B050968C93509751968C93519752968C9359
S11302C0529753968C93539754968C935497559670
S11302D08C93559756968C93569757968C9357971D
S11302E0808B818B828B838B848B858B868B878B96
S11302F09A8749871A963C931A9719969C93228752
S11303009187DF91CF91089583E08093A106E0E087
S1130310FBE08FE097E286A397A384E0808383E3E6
S1130320818310A611A612A613A68AE090E084A7E2
S113033095A70895E0E0F9E0108281E0868383E0E8
S113034081838FEF9FEF86A397A308950E949A015C
S11303500E94840108958FE99FE00197F1F700C09E
S11303600000809168068F3EC9F038F48F3BD1F0CD
S11303708F3DB1F08F37D1F417C08B3F59F018F48B
S1130380873F51F013C08D3F19F08E3F89F00EC0A6
S113039082E0089583E0089584E0089585E0089557
S11303A086E0089587E0089588E008958DE0089533
S11303B081E008958FE99FE00197F1F700C0000004
S11303C0809188068B3F59F018F4873F51F00BC099
S11303D08D3F19F08E3F49F006C080E008958AE011
S11303E008958BE008958DE0089589E00895982F8D
S11303F08A3009F046C085E0E0E0FBE02AEF30E017
S113040020AF31AF4FEF53EF91E041505040904057
S1130410E1F700C0000010AE11AE4FEF53EF91E0D2
S1130420415050409040E1F700C00000815041F736
S113043093C091918D9198138BC0E217F307C9F77C
S113044085E0E0E0FBE02AEF30E020AF31AF4FEF92
S113045057E893E1415050409040E1F700C000005C
S113046010AE11AE4FEF57E893E141505040904029
S1130470E1F700C00000815041F71092262081E08E
S113048008958B3021F41092262080E00895809105
S11304902620853019F510922620E0E0FBE02AEFB3
S11304A030E022AF33AF20AF31AF4FEF57E893E1E5
S11304B0415050409040E1F700C0000012AE13AE2E
S11304C010AE11AE4FEF53EC99E0415050409040C4
S11304D0E1F700C00000815021F70895E82FF0E013
S11304E0E050F04E90838F5F80932620E0E0FBE0A5
S11304F08AEF90E080AF91AF2FEF37E843E12150CE
S113050030404040E1F700C0000010AE11AE5FEF94
S113051027E833E1515020403040E1F700C00000AB
S113052080AF91AF4FEF57E883E141505040804096
S1130530E1F700C0000010AE11AE9FEF27E833E1F1
S1130540915020403040E1F700C0000082E008955F
S113055082E0089582E00895909105208091002022
S11305609813F8CFE6E0F0E2A1E0B0E22AE030E24E
S113057060CF813061F4809325068AEF90E0809308
S1130580380B9093390B87E080930009089581110B
S113059002C0000008958AEF90E080933A0B909394
S11305A03B0B87E08093000908950E9459050E943F
S11305B0300568E080E30E94260584E00E94F4048C
S11305C080E20E9402058CE00E94180586E30E94E6
S11305D0DC0481E00E94E8040E94B9040E942B0517
S11305E00E9425040E9434048CE090E20E9443049B
S11305F06CE070E280E00E94610408950E94210191
S11306000E9443010E94A6010E94D502E0EAF0E0A4
S11306108281836082837894E0E0FBE08AEF90E05B
S113062082AF93AF2FEF83ED90E321508040904051
S1130630E1F700C0000012AE13AE80910A20909141
S11306400B2031E020E002C0832F922F82309105ED
S1130650E8F3FACF1F920F920FB60F9211240F9066
S11306600FBE0F901F9018951F920F920FB60F9206
S113067011240BB60F922F933F934F935F936F9375
S11306807F938F939F93AF93BF93EF93FF93F894CC
S11306900E94AB01E0E0FBE02AEF30E022AF33AF91
S11306A020AF31AF2FEF33EC99E021503040904030
S11306B0E1F700C0000012AE13AE10AE11AE0E94FE
S11306C0F7010E94B9027894FF91EF91BF91AF9125
S11306D09F918F917F916F915F914F913F912F9156
S11306E00F900BBE0F900FBE0F901F9018951F9286
S11306F00F920FB60F9211240BB60F922F933F93C4
S11307004F935F936F937F938F939F93AF93BF9315
S1130710EF93FF93F8940E94DA010E94F7010E947C
S1130720B9027894FF91EF91BF91AF919F918F910E
S11307307F916F915F914F913F912F910F900BBEDD
S11307400F900FBE0F901F9018951F920F920FB627
S11307500F92112410920A2010920B200F900FBEBA
S11307600F901F9018951F920F920FB60F9211249D
S11307700BB60F92EF93FF93E0E0FBE012AE13AEE3
S113078010AE11AEFF91EF910F900BBE0F900FBE04
S11307900F901F9018951F93CF93DF93C0EAD6E074
S11307A010E21E838F710E9473058FEF0E94730500
S11307B01D83DF91CF911F910895DF92EF92FF92F5
S11307C00F931F93CF93DF937B01C42F90E29093F9
S11307D0A6068F7180620E947305D82E8FEF8C0F4E
S11307E0CC2369F0E701082F10E00F5F1F4F0E0DB7
S11307F01F1D89910E947305C017D107D1F780E2AC
S11308008093A5068D2DDF91CF911F910F91FF90BD
S1130810EF90DF900895FF920F931F93CF93DF9390
S1130820F62EC0EAD6E010E21E838F7180620E9429
S11308307305082F8F2D0E9473051D83802FDF9170
S1130840CF911F910F91FF9008951F93CF93DF9342
S1130850C0EAD6E010E21E8382EE0E9473051D8377
S1130860DF91CF911F9108951F93CF93DF93C0EA37
S1130870D6E010E21E8381EE0E9473051D83DF9192
S1130880CF911F910895CF93DF93EC0140911120F4
S1130890BC018AE00E94DD0340911120BE0180E189
S11308A00E94DD0360911220603220F481E10E94F5
S11308B00B0404C060E281E10E940B04DF91CF913C
S11308C008950F931F93CF93DF93C82F8B0181114A
S11308D008C04091112050E087E290E20E94810517
S11308E004C0873078F5823058F4EC2FF0E0E05EF5
S11308F0FF4D40911120B80180810E94DD0308C0A2
S1130900E82FF0E0E05EFF4D41E080810E94DD03CE
S1130910D0E0FE01E65EFF4D6091122080810E94CE
S11309200B0482E00E94CB03CC5EDF4D61E070E0FB
S1130930088002C0660F771F0A94E2F7682B82E0F2
S11309400E940B04DF91CF911F910F9108951F9383
S1130950CF93DF93C0EAD6E010E21E8380E50E94C5
S1130960730583E70E9473051D83DF91CF911F9167
S113097008958DE10E94CB03682F64608DE10E948D
S11309800B048DE10E94CB0381110AC00E94A704CD
S11309908DE10E94CB03682F64608DE10E940B04FB
S11309A08CE10E94CB03682F6F638CE10E940B04DF
S11309B081E080932C20089588232CF0682F85E013
S11309C00E940B0408956FE785E00E940B040895CC
S11309D0882329F06FE381E00E940B04089560E00E
S11309E081E00E940B040895CF93C82F86E00E94F3
S11309F0CB03897FC670682F6C2B86E00E940B04A2
S1130A00CF910895CF93C82F86E00E94CB03877DB2
S1130A109C2F9872682F692B86E00E940B0486E055
S1130A200E94CB0391E0C81390E0892FCF910895E1
S1130A30CF93C82F80E00E94CB03837FCC70682FB4
S1130A406C2B80E00E940B04CF910895682B84E006
S1130A500E940B04089560E787E00E940B04089548
S1130A608FE39CE90197F1F700C000006FE584E093
S1130A700E940B0486E00E94F40480E20E940205B6
S1130A80882319F081E08093132080E00E940205FE
S1130A908CE00E94180560E08CE10E940B048CE459
S1130AA00E94DC040E942B050E9425040E94340449
S1130AB00895E0E4F6E088E0818384E0828382E0C4
S1130AC08183E0EAF6E080E2818380E4828380E847
S1130AD08183E0EAF8E088E1848380EC85831782EF
S1130AE081E0868308958093A008E0EAF8E081819C
S1130AF086FFFDCFE0EAF8E0818180648183808114
S1130B000895FB01DC0102C001900D924150504058
S10B0B10D8F70895F894FFCF13
S1130B180001010101010101010101004876413090
S1130B2831052001000102030405111213141516DE
S1090B380A0B0C0D0E0F68
S9030000FC
