:100000000C94FE000C941F010C941F010C941F0112
:100010000C941F010C941F010C941F010C941F01E0
:100020000C941F010C941F010C941F010C941F01D0
:100030000C941F010C941F010C941F010C941F01C0
:100040000C941F010C941F010C941F010C941F01B0
:100050000C941F010C941F010C941F010C941F01A0
:100060000C941F010C941F010C941F010C941F0190
:100070000C941F010C941F010C941F010C941F0180
:100080000C941F010C941F010C941F010C941F0170
:100090000C941F010C941F010C941F010C941F0160
:1000A0000C941F010C941F010C941F010C94350338
:1000B0000C941F010C941F010C941F010C941F0140
:1000C0000C941F010C941F010C941F010C941F0130
:1000D0000C941F010C941F010C941F010C941F0120
:1000E0000C941F010C941F010C941F010C941F0110
:1000F0000C941F010C941F010C941F010C941F0100
:100100000C9407030C941F010C9463030C941F01BF
:100110000C941F010C941F010C941F010C941F01DF
:100120000C941F010C941F010C941F010C941F01CF
:100130000C941F010C9471030C941F010C941F016B
:100140000C941F010C941F010C941F010C941F01AF
:100150000C941F010C941F010C941F010C941F019F
:100160000C941F010C941F010C941F010C941F018F
:100170000C941F010C941F010C941F010C941F017F
:100180000C941F010C941F010C941F010C941F016F
:100190000C941F010C941F010C941F010C941F015F
:1001A0000C94FD020C941F010C941F010C941F0170
:1001B0000C941F010C941F010C941F010C941F013F
:1001C0000C941F010C941F010C941F010C941F012F
:1001D0000C941F010C941F010C941F010C941F011F
:1001E0000C941F010C941F010C941F010C941F010F
:1001F0000C941F010C941F010C941F0111241FBEAD
:10020000CFEFCDBFDFE5DEBF00E00CBF10E2A0E026
:10021000B0E2EEE9FAE000E00BBF02C007900D92F9
:10022000A632B107D9F720E2A6E2B0E201C01D92E2
:10023000AD32B207E1F70E94D1020C944D050C9447
:100240000000E0E5F0E08BEC8283808188608083B1
:10025000818183FFFDCFE0E5F0E082EC8583808142
:1002600080618083818184FFFDCF88ED84BF84E03D
:1002700080934000E0E5F0E080818E7F8083808184
:100280008D7F80830895CF93DF93C0E0D6E092E026
:100290009A8341E040932106A0E6B6E03FEF129634
:1002A0003C931297E0E8F6E02FE02283198A8AE176
:1002B00050968C93509751968C93519752968C935D
:1002C000529753968C93539754968C935497559674
:1002D0008C93559756968C93569757968C93579721
:1002E000808B818B828B838B848B858B868B878B9A
:1002F0009A8749871A963C931A9719969C93228756
:100300009187DF91CF91089583E08093A106E0E08B
:10031000FBE08FE097E286A397A384E0808383E3EA
:10032000818310A611A612A613A68AE090E084A7E6
:1003300095A70895E0E0F9E0108281E0868383E0EC
:1003400081838FEF9FEF86A397A308950E949A0160
:100350000E94840108958FE99FE00197F1F700C0A2
:100360000000809168068F3EC9F038F48F3BD1F0D1
:100370008F3DB1F08F37D1F417C08B3F59F018F48F
:10038000873F51F013C08D3F19F08E3F89F00EC0AA
:1003900082E0089583E0089584E0089585E008955B
:1003A00086E0089587E0089588E008958DE0089537
:1003B00081E008958FE99FE00197F1F700C0000008
:1003C000809188068B3F59F018F4873F51F00BC09D
:1003D0008D3F19F08E3F49F006C080E008958AE015
:1003E00008958BE008958DE0089589E00895982F91
:1003F0008A30B9F49091052080910020981348C06C
:10040000E6E0F0E2A1E0B0E22AE030E291918D91E5
:10041000981340C0E217F307C9F71092262081E035
:1004200008958B3021F41092262080E00895809169
:100430002620853019F510922620E0E0FBE02AEF17
:1004400030E022AF33AF20AF31AF4FEF57E893E149
:10045000415050409040E1F700C0000012AE13AE92
:1004600010AE11AE4FEF53EC99E041505040904028
:10047000E1F700C00000815021F70895E82FF0E077
:10048000E050F04E90838F5F8093262080E00895A7
:1004900082E0089582E008958130A9F480932506D2
:1004A0002FEF33EC49E0215030404040E1F700C0ED
:1004B00000008AEF90E08093380B9093390B87E02F
:1004C000809300090895811139C0E0E0FBE08AEFD4
:1004D00090E082AF93AF80AF91AF2FEF31EE44E069
:1004E000215030404040E1F700C0000012AE13AE92
:1004F00010AE11AE2FEF31EE44E0215030404040BD
:10050000E1F700C0000082AF93AF80AF91AF8FEFF3
:1005100091EE24E0815090402040E1F700C00000BF
:1005200012AE13AE10AE11AE3FEF41EE84E031508B
:1005300040408040E1F700C0000008958AEF90E05D
:1005400080933A0B90933B0B87E0809300090895CA
:100550000E941C050E94F30468E080E30E94E90405
:1005600084E00E94B70480E20E94C5048CE00E94EF
:10057000DB0486E30E949F0481E00E94AB040E949A
:100580007C040E94EE040E94E8030E94F7038CE0C2
:1005900090E20E9406046CE070E280E00E94240475
:1005A00008950E9421010E9443010E94A6010E9419
:1005B000A802E0EAF0E08281836082837894E0E040
:1005C000FBE08AEF90E082AF93AF2FEF83ED90E3F3
:1005D000215080409040E1F700C0000012AE13AE01
:1005E00080910A2090910B2031E020E002C0832FFF
:1005F000922F82309105E8F3FACF1F920F920FB637
:100600000F9211240F900FBE0F901F9018951F92FC
:100610000F920FB60F9211240BB60F922F933F93A8
:100620004F935F936F937F938F939F93AF93BF93FA
:10063000EF93FF93F8940E94AB010E94F7010E9490
:100640004C027894FF91EF91BF91AF919F918F9160
:100650007F916F915F914F913F912F910F900BBEC2
:100660000F900FBE0F901F9018951F920F920FB60C
:100670000F9211240BB60F922F933F934F935F93DA
:100680006F937F938F939F93AF93BF93EF93FF935A
:10069000F8940E94DA010E94F7010E944C027894BB
:1006A000FF91EF91BF91AF919F918F917F916F914A
:1006B0005F914F913F912F910F900BBE0F900FBE06
:1006C0000F901F9018951F920F920FB60F92112442
:1006D00010920A2010920B200F900FBE0F901F90C7
:1006E00018951F920F920FB60F9211240BB60F920E
:1006F0008F93EF93FF9381E080932606E0E0FBE089
:1007000012AE13AE10AE11AEFF91EF918F910F901C
:100710000BBE0F900FBE0F901F9018951F93CF9395
:10072000DF93C0EAD6E010E21E838F710E94360587
:100730008FEF0E9436051D83DF91CF911F910895A1
:10074000DF92EF92FF920F931F93CF93DF937B0182
:10075000C42F90E29093A6068F7180620E943605A6
:10076000D82E8FEF8C0FCC2369F0E701082F10E013
:100770000F5F1F4F0E0D1F1D89910E943605C01778
:10078000D107D1F780E28093A5068D2DDF91CF911F
:100790001F910F91FF90EF90DF900895FF920F93BC
:1007A0001F93CF93DF93F62EC0EAD6E010E21E83AC
:1007B0008F7180620E943605082F8F2D0E943605AA
:1007C0001D83802FDF91CF911F910F91FF9008958E
:1007D0001F93CF93DF93C0EAD6E010E21E8382EE30
:1007E0000E9436051D83DF91CF911F9108951F93BD
:1007F000CF93DF93C0EAD6E010E21E8381EE0E9421
:1008000036051D83DF91CF911F910895CF93DF931C
:10081000EC0140911120BC018AE00E94A0034091AC
:100820001120BE0180E10E94A0036091122060327D
:1008300020F481E10E94CE0304C060E281E10E94C5
:10084000CE03DF91CF9108950F931F93CF93DF9342
:10085000C82F8B01811108C04091112050E087E220
:1008600090E20E94440504C0873078F5823058F445
:10087000EC2FF0E0E05EFF4D40911120B801808147
:100880000E94A00308C0E82FF0E0E05EFF4D41E0C9
:1008900080810E94A003D0E0FE01E65EFF4D6091E2
:1008A000122080810E94CE0382E00E948E03CC5EE3
:1008B000DF4D61E070E0088002C0660F771F0A9488
:1008C000E2F7682B82E00E94CE03DF91CF911F9167
:1008D0000F9108951F93CF93DF93C0EAD6E010E203
:1008E0001E8380E50E94360583E70E9436051D833E
:1008F000DF91CF911F9108958DE10E948E03682FA3
:1009000064608DE10E94CE038DE10E948E0381110F
:100910000AC00E946A048DE10E948E03682F646001
:100920008DE10E94CE038CE10E948E03682F6F63DD
:100930008CE10E94CE0381E080932C2008958823CF
:100940002CF0682F85E00E94CE0308956FE785E0C4
:100950000E94CE030895882329F06FE381E00E946E
:10096000CE03089560E081E00E94CE030895CF9306
:10097000C82F86E00E948E03897FC670682F6C2B7B
:1009800086E00E94CE03CF910895CF93C82F86E0D2
:100990000E948E03877D9C2F9872682F692B86E0BA
:1009A0000E94CE0386E00E948E0391E0C81390E07F
:1009B000892FCF910895CF93C82F80E00E948E0396
:1009C000837FCC70682F6C2B80E00E94CE03CF9188
:1009D0000895682B84E00E94CE03089560E787E0C5
:1009E0000E94CE0308958FE39CE90197F1F700C0C0
:1009F00000006FE584E00E94CE0386E00E94B70409
:100A000080E20E94C504882319F081E080931320BE
:100A100080E00E94C5048CE00E94DB0460E08CE171
:100A20000E94CE038CE40E949F040E94EE040E9468
:100A3000E8030E94F7030895E0E4F6E088E081838C
:100A400084E0828382E08183E0EAF6E080E28183D1
:100A500080E4828380E88183E0EAF8E088E18483AF
:100A600080EC8583178281E0868308958093A008B7
:100A7000E0EAF8E0818186FFFDCFE0EAF8E08181DD
:100A80008064818380810895FB01DC0102C00190B4
:0E0A90000D9241505040D8F70895F894FFCFD2
:100A9E00000101010101010101010100487641300F
:100AAE00310520010001020304051112131415165D
:060ABE000A0B0C0D0E0FE7
:00000001FF
