:100000000C94FE000C941F010C941F010C941F0112
:100010000C941F010C941F010C941F010C941F01E0
:100020000C941F010C941F010C941F010C941F01D0
:100030000C941F010C941F010C941F010C941F01C0
:100040000C941F010C941F010C941F010C941F01B0
:100050000C941F010C941F010C941F010C941F01A0
:100060000C941F010C941F010C941F010C941F0190
:100070000C941F010C941F010C941F010C941F0180
:100080000C941F010C941F010C941F010C941F0170
:100090000C941F010C941F010C941F010C941F0160
:1000A0000C941F010C941F010C941F010C94D80296
:1000B0000C941F010C941F010C941F010C941F0140
:1000C0000C941F010C941F010C941F010C941F0130
:1000D0000C941F010C941F010C941F010C941F0120
:1000E0000C941F010C941F010C941F010C941F0110
:1000F0000C941F010C941F010C941F010C941F0100
:100100000C9499020C941F010C9406030C941F018B
:100110000C941F010C941F010C941F010C941F01DF
:100120000C941F010C941F010C941F010C941F01CF
:100130000C941F010C9414030C941F010C941F01C8
:100140000C941F010C941F010C941F010C941F01AF
:100150000C941F010C941F010C941F010C941F019F
:100160000C941F010C941F010C941F010C941F018F
:100170000C941F010C941F010C941F010C941F017F
:100180000C941F010C941F010C941F010C941F016F
:100190000C941F010C941F010C941F010C941F015F
:1001A0000C948F020C941F010C941F010C941F01DE
:1001B0000C941F010C941F010C941F010C941F013F
:1001C0000C941F010C941F010C941F010C941F012F
:1001D0000C941F010C941F010C941F010C941F011F
:1001E0000C941F010C941F010C941F010C941F010F
:1001F0000C941F010C941F010C941F0111241FBEAD
:10020000CFEFCDBFDFE5DEBF00E00CBF10E2A0E026
:10021000B0E2E6ECF9E000E00BBF02C007900D92FF
:10022000AC31B107D9F720E2ACE1B0E201C01D92D8
:10023000A232B207E1F70E9463020C94E1040C942D
:100240000000E0E5F0E08BEC8283808188608083B1
:10025000818183FFFDCFE0E5F0E082EC8583808142
:1002600080618083818184FFFDCF88ED84BF84E03D
:1002700080934000E0E5F0E080818E7F8083808184
:100280008D7F80830895CF93DF93C0E0D6E092E026
:100290009A8341E040932106A0E6B6E03FEF129634
:1002A0003C931297E0E8F6E02FE02283198A8AE176
:1002B00050968C93509751968C93519752968C935D
:1002C000529753968C93539754968C935497559674
:1002D0008C93559756968C93569757968C93579721
:1002E000808B818B828B838B848B858B868B878B9A
:1002F0009A8749871A963C931A9719969C93228756
:100300009187DF91CF91089583E08093A106E0E08B
:10031000FBE08FE097E286A397A384E0808383E3EA
:10032000818310A611A612A613A68AE090E084A7E6
:1003300095A70895E0E0F9E0108281E0868383E0EC
:1003400081838FEF9FEF86A397A308950E949A0160
:100350000E94840108958FE99FE00197F1F700C0A2
:100360000000809168068F3EC9F038F48F3BD1F0D1
:100370008F3DB1F08F37D1F417C08B3F59F018F48F
:10038000873F51F013C08D3F19F08E3F89F00EC0AA
:1003900082E0089583E0089584E0089585E008955B
:1003A00086E0089587E0089588E008958DE0089537
:1003B00081E008958FE99FE00197F1F700C0000008
:1003C000809188068B3F59F018F4873F51F00BC09D
:1003D0008D3F19F08E3F49F006C080E008958AE015
:1003E00008958BE008958DE0089589E008958A309E
:1003F00091F4E0E0FBE08AEF90E080AF91AF2FEF67
:1004000083ED90E3215080409040E1F700C0000070
:1004100010AE11AE11C0E0E0FBE08AEF90E082AFD9
:1004200093AF2FEF83ED90E3215080409040E1F7B0
:1004300000C0000012AE13AE88EC0895813061F464
:10044000809325068AEF90E08093380B9093390BC8
:1004500087E0809300090895811102C0000008958B
:100460008AEF90E080933A0B90933B0B87E0809368
:10047000000908950E94B0040E94870468E080E3A8
:100480000E947D0484E00E944B0480E20E94590493
:100490008CE00E946F0486E30E94330481E00E9496
:1004A0003F040E9410040E9482040E947C030E9468
:1004B0008B0382E090E20E949A0362E070E280E0A7
:1004C0000E94B80308950E9421010E9443010E94E6
:1004D000A6010E943A02E0EAF0E082818360828312
:1004E0007894E0E0FBE08AEF90E082AF93AF2FEFEB
:1004F00083ED90E3215080409040E1F700C0000080
:1005000012AE13AE809100209091012031E020E0E6
:1005100002C0832F922F82309105E8F3FACF1F9209
:100520000F920FB60F9211240F900FBE0F901F90D5
:1005300018951F920F920FB60F9211240BB60F92BF
:100540002F933F934F935F936F937F938F939F93DB
:10055000AF93BF93EF93FF93F894E0E0FBE08AEF53
:1005600090E082AF93AF2FEF89E698E12150804071
:100570009040E1F700C0000012AE13AE0E94AB0144
:100580000E94F7010E941E027894FF91EF91BF91A3
:10059000AF919F918F917F916F915F914F913F911B
:1005A0002F910F900BBE0F900FBE0F901F901895BC
:1005B0001F920F920FB60F9211240BB60F922F932A
:1005C0003F934F935F936F937F938F939F93AF93DB
:1005D000BF93EF93FF93F8940E94DA010E94F70112
:1005E0000E941E027894FF91EF91BF91AF919F916D
:1005F0008F917F916F915F914F913F912F910F90CC
:100600000BBE0F900FBE0F901F9018951F920F9268
:100610000FB60F92112410920020109201200F901B
:100620000FBE0F901F9018951F920F920FB60F924A
:10063000112410923A0B10923B0B0F900FBE0F90AB
:100640001F9018951F93CF93DF93C0EAD6E010E276
:100650001E838F710E94CA048FEF0E94CA041D83FB
:10066000DF91CF911F910895DF92EF92FF920F9348
:100670001F93CF93DF937B01C42F90E29093A60644
:100680008F7180620E94CA04D82E8FEF8C0FCC230A
:1006900069F0E701082F10E00F5F1F4F0E0D1F1DBF
:1006A00089910E94CA04C017D107D1F780E28093D4
:1006B000A5068D2DDF91CF911F910F91FF90EF90A7
:1006C000DF900895FF920F931F93CF93DF93F62E41
:1006D000C0EAD6E010E21E838F7180620E94CA04D5
:1006E000082F8F2D0E94CA041D83802FDF91CF9188
:1006F0001F910F91FF9008951F93CF93DF93C0EA4E
:10070000D6E010E21E8382EE0E94CA041D83DF91B0
:10071000CF911F9108951F93CF93DF93C0EAD6E046
:1007200010E21E8381EE0E94CA041D83DF91CF91E7
:100730001F910895CF93DF93EC0140910720BC01F6
:100740008AE00E94340340910720BE0180E10E94AC
:10075000340360910820603220F481E10E9462033A
:1007600004C060E281E10E946203DF91CF910895AD
:100770000F931F93CF93DF93C82F8B01811108C074
:100780004091072050E08CE190E20E94D80404C020
:10079000873078F5823058F4EC2FF0E0EA5EFF4DB8
:1007A00040910720B80180810E94340308C0E82FDF
:1007B000F0E0EA5EFF4D41E080810E943403D0E02A
:1007C000FE01E05FFF4D6091082080810E9462037E
:1007D00082E00E942203C65FDF4D61E070E0088086
:1007E00002C0660F771F0A94E2F7682B82E00E942E
:1007F0006203DF91CF911F910F9108951F93CF93C3
:10080000DF93C0EAD6E010E21E8380E50E94CA04AE
:1008100083E70E94CA041D83DF91CF911F91089541
:100820008DE10E942203682F64608DE10E946203C3
:100830008DE10E94220381110AC00E94FE038DE116
:100840000E942203682F64608DE10E9462038CE1A4
:100850000E942203682F6F638CE10E94620381E093
:1008600080932120089588232CF0682F85E00E9432
:10087000620308956FE785E00E946203089588236C
:1008800029F06FE381E00E946203089560E081E057
:100890000E9462030895CF93C82F86E00E9422032E
:1008A000897FC670682F6C2B86E00E946203CF910F
:1008B0000895CF93C82F86E00E942203877D9C2F46
:1008C0009872682F692B86E00E94620386E00E947E
:1008D000220391E0C81390E0892FCF910895CF9320
:1008E000C82F80E00E942203837FCC70682F6C2B7E
:1008F00080E00E946203CF910895682B84E00E94FB
:100900006203089560E787E00E94620308958FE321
:100910009CE90197F1F700C000006FE584E00E94B8
:10092000620386E00E944B0480E20E9459048823FF
:1009300019F081E08093092080E00E9459048CE046
:100940000E946F0460E08CE10E9462038CE40E94CC
:1009500033040E9482040E947C030E948B0308954A
:10096000E0E4F6E088E0818384E0828382E08183B2
:10097000E0EAF6E080E2818380E4828380E881839C
:10098000E0EAF8E088E1848380EC8583178281E0E7
:10099000868308958093A008E0EAF8E0818186FFCD
:1009A000FDCFE0EAF8E08181806481838081089551
:1009B000FB01DC0102C001900D9241505040D8F77C
:0609C0000895F894FFCF3A
:1009C600010048764130310520010001020304058B
:0C09D6001112131415160A0B0C0D0E0F55
:00000001FF
