:100000000C94FE000C941F010C941F010C941F0112
:100010000C941F010C941F010C941F010C941F01E0
:100020000C941F010C941F010C941F010C941F01D0
:100030000C941F010C941F010C941F010C941F01C0
:100040000C941F010C941F010C941F010C941F01B0
:100050000C941F010C941F010C941F010C941F01A0
:100060000C941F010C941F010C941F010C941F0190
:100070000C941F010C941F010C941F010C941F0180
:100080000C941F010C941F010C941F010C941F0170
:100090000C941F010C941F010C941F010C941F0160
:1000A0000C941F010C941F010C941F010C944D0320
:1000B0000C941F010C941F010C941F010C941F0140
:1000C0000C941F010C941F010C941F010C941F0130
:1000D0000C941F010C941F010C941F010C941F0120
:1000E0000C941F010C941F010C941F010C941F0110
:1000F0000C941F010C941F010C941F010C941F0100
:100100000C941F030C941F010C947B030C941F018F
:100110000C941F010C941F010C941F010C941F01DF
:100120000C941F010C941F010C941F010C941F01CF
:100130000C941F010C9489030C941F010C941F0153
:100140000C941F010C941F010C941F010C941F01AF
:100150000C941F010C941F010C941F010C941F019F
:100160000C941F010C941F010C941F010C941F018F
:100170000C941F010C941F010C941F010C941F017F
:100180000C941F010C941F010C941F010C941F016F
:100190000C941F010C941F010C941F010C941F015F
:1001A0000C9415030C941F010C941F010C941F0157
:1001B0000C941F010C941F010C941F010C941F013F
:1001C0000C941F010C941F010C941F010C941F012F
:1001D0000C941F010C941F010C941F010C941F011F
:1001E0000C941F010C941F010C941F010C941F010F
:1001F0000C941F010C941F010C941F0111241FBEAD
:10020000CFEFCDBFDFE5DEBF00E00CBF10E2A0E026
:10021000B0E2E2EDFAE000E00BBF02C007900D9201
:10022000A232B107D9F720E2A2E2B0E201C01D92EA
:10023000AE32B207E1F70E94F7020C9467050C9406
:100240000000E0E5F0E08BEC8283808188608083B1
:10025000818183FFFDCFE0E5F0E082EC8583808142
:1002600080618083818184FFFDCF88ED84BF84E03D
:1002700080934000E0E5F0E080818E7F8083808184
:100280008D7F80830895CF93DF93C0E0D6E092E026
:100290009A8341E040932106A0E6B6E03FEF129634
:1002A0003C931297E0E8F6E02FE02283198A8AE176
:1002B00050968C93509751968C93519752968C935D
:1002C000529753968C93539754968C935497559674
:1002D0008C93559756968C93569757968C93579721
:1002E000808B818B828B838B848B858B868B878B9A
:1002F0009A8749871A963C931A9719969C93228756
:100300009187DF91CF91089583E08093A106E0E08B
:10031000FBE08FE097E286A397A384E0808383E3EA
:10032000818310A611A612A613A68AE090E084A7E6
:1003300095A70895E0E0F9E0108281E0868383E0EC
:1003400081838FEF9FEF86A397A308950E949A0160
:100350000E94840108958FE99FE00197F1F700C0A2
:100360000000809168068F3EC9F038F48F3BD1F0D1
:100370008F3DB1F08F37D1F417C08B3F59F018F48F
:10038000873F51F013C08D3F19F08E3F89F00EC0AA
:1003900082E0089583E0089584E0089585E008955B
:1003A00086E0089587E0089588E0089584E108953F
:1003B00081E008958FE99FE00197F1F700C0000008
:1003C000809188068B3F59F018F4873F51F00BC09D
:1003D0008D3F19F08E3F49F006C080E008958CE013
:1003E00008958BE0089584E1089589E008958C30A4
:1003F00009F066C085E0E0E0FBE02AEF30E020AFE6
:1004000031AF4FEF53EF91E0415050409040E1F752
:1004100000C0000010AE11AE4FEF53EF91E041501D
:1004200050409040E1F700C00000815041F79DC06E
:100430001092272085E0E0E0FBE02AEF30E022AFD9
:1004400033AF4FEF57E893E1415050409040E1F710
:1004500000C0000012AE13AE4FEF57E893E14150D9
:1004600050409040E1F700C00000815041F70895EE
:1004700021919D91291388C0E417F507C9F785E0FC
:10048000E0E0FBE02AEF30E020AF31AF4FEF57E87C
:1004900093E1415050409040E1F700C0000010AEA1
:1004A00011AE4FEF57E893E1415050409040E1F7D3
:1004B00000C00000815041F71092272081E008958C
:1004C0008B3021F41092272080E00895909127200E
:1004D000953011F41092272090912720E92FF0E019
:1004E000EE5DFF4D80839F5F90932720E0E0FBE06F
:1004F0008AEF90E080AF91AF2FEF37E843E12150D2
:1005000030404040E1F700C0000010AE11AE5FEF98
:1005100027E833E1515020403040E1F700C00000AF
:1005200080AF91AF4FEF57E883E14150504080409A
:10053000E1F700C0000010AE11AE9FEF27E833E1F5
:10054000915020403040E1F700C0000082E0089563
:100550002091002090912220291316C0E1E0F0E2C2
:10056000A3E2B0E245E050E283CF4FEF53ED90E3DA
:10057000415050409040E1F700C00000909127208A
:10058000953008F055CFE4CF089508950E943605C0
:100590000E940D0568E080E30E94030584E00E944C
:1005A000D10480E20E94DF048CE00E94F50486E31F
:1005B0000E94B90481E00E94C5040E9496040E9432
:1005C00008050E9402040E94110487E090E20E9444
:1005D000200467E070E280E00E943E04E0EAF6E07A
:1005E00080E4828782E0868B81E0818708950E9483
:1005F00021010E94C6020E9443010E94A60181E0DF
:1006000080934106E0EAF0E08281836082837894FF
:10061000809105209091062031E020E002C0832FD8
:10062000922F82309105E8F3FACF1F920F920FB606
:100630000F9211240F900FBE0F901F9018951F92CC
:100640000F920FB60F9211240BB60F922F933F9378
:100650004F935F936F937F938F939F93AF93BF93CA
:10066000EF93FF93F8940E94AB010E94F7010E9460
:10067000C5027894FF91EF91BF91AF919F918F91B7
:100680007F916F915F914F913F912F910F900BBE92
:100690000F900FBE0F901F9018951F920F920FB6DC
:1006A0000F9211240BB60F922F933F934F935F93AA
:1006B0006F937F938F939F93AF93BF93EF93FF932A
:1006C000F8940E94DA010E94F7010E94C502789412
:1006D000FF91EF91BF91AF919F918F917F916F911A
:1006E0005F914F913F912F910F900BBE0F900FBED6
:1006F0000F901F9018951F920F920FB60F92112412
:1007000010920520109206200F900FBE0F901F90A0
:1007100018951F920F920FB60F9211240BB60F92DD
:100720008F93EF93FF931092000981E08093260648
:10073000E0E0FBE012AE13AE10AE11AEFF91EF9110
:100740008F910F900BBE0F900FBE0F901F901895BA
:100750001F93CF93DF93C0EAD6E010E21E838F7120
:100760000E9450058FEF0E9450051D83DF91CF91AD
:100770001F910895DF92EF92FF920F931F93CF93F3
:10078000DF937B01C42F90E29093A6068F71806265
:100790000E945005D82E8FEF8C0FCC2369F0E70113
:1007A000082F10E00F5F1F4F0E0D1F1D89910E9433
:1007B0005005C017D107D1F780E28093A5068D2D93
:1007C000DF91CF911F910F91FF90EF90DF900895EF
:1007D000FF920F931F93CF93DF93F62EC0EAD6E0DC
:1007E00010E21E838F7180620E945005082F8F2DAA
:1007F0000E9450051D83802FDF91CF911F910F9193
:10080000FF9008951F93CF93DF93C0EAD6E010E2E4
:100810001E8382EE0E9450051D83DF91CF911F91B0
:1008200008951F93CF93DF93C0EAD6E010E21E83B2
:1008300081EE0E9450051D83DF91CF911F91089595
:10084000CF93DF93EC0140910C20BC018AE00E9421
:10085000BA0340910C20BE0180E10E94BA0360916E
:100860000D20603220F481E10E94E80304C060E2C0
:1008700081E10E94E803DF91CF9108950F931F93C8
:10088000CF93DF93C82F8B01811108C040910C20BA
:1008900050E088E290E20E945E0504C0873078F55F
:1008A000823058F4EC2FF0E0E55EFF4D40910C20D3
:1008B000B80180810E94BA0308C0E82FF0E0E55E2D
:1008C000FF4D41E080810E94BA03D0E0FE01EB5E63
:1008D000FF4D60910D2080810E94E80382E00E941C
:1008E000A803C15FDF4D61E070E0088002C0660FC1
:1008F000771F0A94E2F7682B82E00E94E803DF91F9
:10090000CF911F910F9108951F93CF93DF93C0EA6A
:10091000D6E010E21E8380E50E94500583E70E9426
:1009200050051D83DF91CF911F9108958DE10E94A5
:10093000A803682F64608DE10E94E8038DE10E94A6
:10094000A80381110AC00E9484048DE10E94A803BB
:10095000682F64608DE10E94E8038CE10E94A80387
:10096000682F6F638CE10E94E80381E080932D2063
:10097000089588232CF0682F85E00E94E8030895ED
:100980006FE785E00E94E8030895882329F06FE36C
:1009900081E00E94E803089560E081E00E94E8039E
:1009A0000895CF93C82F86E00E94A803897FC67060
:1009B000682F6C2B86E00E94E803CF910895CF93B7
:1009C000C82F86E00E94A803877D9C2F9872682F0D
:1009D000692B86E00E94E80386E00E94A80391E06C
:1009E000C81390E0892FCF910895CF93C82F80E04E
:1009F0000E94A803837FCC70682F6C2B80E00E943C
:100A0000E803CF910895682B84E00E94E8030895DD
:100A100060E787E00E94E80308958FE39CE901976F
:100A2000F1F700C000006FE584E00E94E80386E073
:100A30000E94D10480E20E94DF04882319F081E043
:100A400080930E2080E00E94DF048CE00E94F50479
:100A500060E08CE10E94E8038CE40E94B9040E94EB
:100A600008050E9402040E9411040895E0E4F6E0E3
:100A700088E0818384E0828382E08183E0EAF6E09B
:100A800080E2818380E4828380E88183E0EAF8E089
:100A900088E1848380EC8583178281E086830895D2
:100AA0008093A008E0EAF8E0818186FFFDCFE0EACC
:100AB000F8E081818064818380810895FB01DC01FD
:100AC00002C001900D9241505040D8F70895F8941B
:020AD000FFCF56
:100AD2000101010101010048764130310520010088
:100AE20001020304051112131415160A0B0C0D0E44
:020AF2000F00F3
:00000001FF
