:100000000C94FE000C941F010C941F010C941F0112
:100010000C941F010C941F010C941F010C941F01E0
:100020000C941F010C941F010C941F010C941F01D0
:100030000C941F010C941F010C941F010C941F01C0
:100040000C941F010C941F010C941F010C941F01B0
:100050000C941F010C941F010C941F010C941F01A0
:100060000C941F010C941F010C941F010C941F0190
:100070000C941F010C941F010C941F010C941F0180
:100080000C941F010C941F010C941F010C941F0170
:100090000C941F010C941F010C941F010C941F0160
:1000A0000C941F010C941F010C941F010C945B0312
:1000B0000C941F010C941F010C941F010C941F0140
:1000C0000C941F010C941F010C941F010C941F0130
:1000D0000C941F010C941F010C941F010C941F0120
:1000E0000C941F010C941F010C941F010C941F0110
:1000F0000C941F010C941F010C941F010C941F0100
:100100000C942D030C941F010C9489030C941F0173
:100110000C941F010C941F010C941F010C941F01DF
:100120000C941F010C941F010C941F010C941F01CF
:100130000C941F010C9497030C941F010C941F0145
:100140000C941F010C941F010C941F010C941F01AF
:100150000C941F010C941F010C941F010C941F019F
:100160000C941F010C941F010C941F010C941F018F
:100170000C941F010C941F010C941F010C941F017F
:100180000C941F010C941F010C941F010C941F016F
:100190000C941F010C941F010C941F010C941F015F
:1001A0000C9423030C941F010C941F010C941F0149
:1001B0000C941F010C941F010C941F010C941F013F
:1001C0000C941F010C941F010C941F010C941F012F
:1001D0000C941F010C941F010C941F010C941F011F
:1001E0000C941F010C941F010C941F010C941F010F
:1001F0000C941F010C941F010C941F0111241FBEAD
:10020000CFEFCDBFDFE5DEBF00E00CBF10E2A0E026
:10021000B0E2EAEEFAE000E00BBF02C007900D92F8
:10022000AC32B107D9F720E2ACE2B0E201C01D92D6
:10023000A333B207E1F70E94F7020C9473050C9404
:100240000000E0E5F0E08BEC8283808188608083B1
:10025000818183FFFDCFE0E5F0E082EC8583808142
:1002600080618083818184FFFDCF88ED84BF84E03D
:1002700080934000E0E5F0E080818E7F8083808184
:100280008D7F80830895CF93DF93C0E0D6E092E026
:100290009A8341E040932106A0E6B6E03FEF129634
:1002A0003C931297E0E8F6E02FE02283198A8AE176
:1002B00050968C93509751968C93519752968C935D
:1002C000529753968C93539754968C935497559674
:1002D0008C93559756968C93569757968C93579721
:1002E000808B818B828B838B848B858B868B878B9A
:1002F0009A8749871A963C931A9719969C93228756
:100300009187DF91CF91089583E08093A106E0E08B
:10031000FBE08FE097E286A397A384E0808383E3EA
:10032000818310A611A612A613A68AE090E084A7E6
:1003300095A70895E0E0F9E0108281E0868383E0EC
:1003400081838FEF9FEF86A397A308950E949A0160
:100350000E94840108958FE99FE00197F1F700C0A2
:100360000000809168068F3EC9F038F48F3BD1F0D1
:100370008F3DB1F08F37D1F417C08B3F59F018F48F
:10038000873F51F013C08D3F19F08E3F89F00EC0AA
:1003900082E0089583E0089584E0089585E008955B
:1003A00086E0089587E0089588E008958DE0089537
:1003B00081E008958FE99FE00197F1F700C0000008
:1003C000809188068B3F59F018F4873F51F00BC09D
:1003D0008D3F19F08E3F49F006C080E008958AE015
:1003E00008958BE008958DE0089589E00895CF93F6
:1003F000DF93CDB7DEB72597CDBFDEBF25E0E4E1C3
:10040000F0E2DE01119601900D922A95E1F7FE01CE
:100410003196AE014A5F5F4F2191DC012D93CD01F2
:10042000E417F507C9F72596CDBFDEBFDF91CF9161
:100430000895982F8A30D9F490910520809100205A
:1004400098134CC0E6E0F0E2A1E0B0E22AE030E22E
:1004500091918D91981344C0E217F307C9F780E09A
:1004600090E20E94F70110922C2081E008958B30D9
:1004700021F410922C2080E0089580912C2085306A
:1004800019F510922C20E0E0FBE02AEF30E022AFDB
:1004900033AF20AF31AF4FEF57E893E141505040B9
:1004A0009040E1F700C0000012AE13AE10AE11AEE6
:1004B0004FEF53EC99E0415050409040E1F700C0BD
:1004C0000000815021F70895E82FF0E0E050F04E51
:1004D00090838F5F80932C2080E0089582E00895C0
:1004E00082E008958130A9F4809325062FEF33EC44
:1004F00049E0215030404040E1F700C000008AEF61
:1005000090E08093380B9093390B87E0809300093B
:100510000895811139C0E0E0FBE08AEF90E082AFFE
:1005200093AF80AF91AF2FEF31EE44E021503040D8
:100530004040E1F700C0000012AE13AE10AE11AEA5
:100540002FEF31EE44E0215030404040E1F700C051
:10055000000082AF93AF80AF91AF8FEF91EE24E0B8
:10056000815090402040E1F700C0000012AE13AE71
:1005700010AE11AE3FEF41EE84E03150404080407C
:10058000E1F700C0000008958AEF90E080933A0BF5
:1005900090933B0B87E08093000908950E944205E9
:1005A0000E94190568E080E30E940F0584E00E9424
:1005B000DD0480E20E94EB048CE00E94010586E3EA
:1005C0000E94C50481E00E94D1040E94A2040E94FE
:1005D00014050E940E040E941D048CE090E20E940B
:1005E0002C046CE070E280E00E944A0408950E94AE
:1005F00021010E9443010E94A6010E94CE02E0EA6E
:10060000F0E08281836082837894E0E0FBE08AEF0F
:1006100090E082AF93AF2FEF83ED90E321508040C5
:100620009040E1F700C0000012AE13AE80910A20A6
:1006300090910B2031E020E002C0832F922F823076
:100640009105E8F3FACF1F920F920FB60F92112483
:100650000F900FBE0F901F9018951F920F920FB61C
:100660000F9211240BB60F922F933F934F935F93EA
:100670006F937F938F939F93AF93BF93EF93FF936A
:10068000F8940E94AB010E9419020E9472027894B1
:10069000FF91EF91BF91AF919F918F917F916F915A
:1006A0005F914F913F912F910F900BBE0F900FBE16
:1006B0000F901F9018951F920F920FB60F92112452
:1006C0000BB60F922F933F934F935F936F937F934C
:1006D0008F939F93AF93BF93EF93FF93F8940E94F0
:1006E000DA010E9419020E9472027894FF91EF9140
:1006F000BF91AF919F918F917F916F915F914F913A
:100700003F912F910F900BBE0F900FBE0F901F9037
:1007100018951F920F920FB60F92112410920A2073
:1007200010920B200F900FBE0F901F9018951F92E4
:100730000F920FB60F9211240BB60F928F93EF9377
:10074000FF9381E080932606E0E0FBE012AE13AE5B
:1007500010AE11AEFF91EF918F910F900BBE0F90E5
:100760000FBE0F901F9018951F93CF93DF93C0EA91
:10077000D6E010E21E838F710E945C058FEF0E940D
:100780005C051D83DF91CF911F910895DF92EF9259
:10079000FF920F931F93CF93DF937B01C42F90E2BF
:1007A0009093A6068F7180620E945C05D82E8FEF11
:1007B0008C0FCC2369F0E701082F10E00F5F1F4F6B
:1007C0000E0D1F1D89910E945C05C017D107D1F73E
:1007D00080E28093A5068D2DDF91CF911F910F911F
:1007E000FF90EF90DF900895FF920F931F93CF93A8
:1007F000DF93F62EC0EAD6E010E21E838F7180628E
:100800000E945C05082F8F2D0E945C051D83802FA0
:10081000DF91CF911F910F91FF9008951F93CF9378
:10082000DF93C0EAD6E010E21E8382EE0E945C05F0
:100830001D83DF91CF911F9108951F93CF93DF9375
:10084000C0EAD6E010E21E8381EE0E945C051D83A3
:10085000DF91CF911F910895CF93DF93EC014091E9
:100860001120BC018AE00E94C60340911120BE0104
:1008700080E10E94C60360911220603220F481E181
:100880000E94F40304C060E281E10E94F403DF915E
:10089000CF9108950F931F93CF93DF93C82F8B01B0
:1008A000811108C04091112050E08DE290E20E9439
:1008B0006A0504C0873078F5823058F4EC2FF0E0F8
:1008C000EB5DFF4D40911120B80180810E94C6036D
:1008D00008C0E82FF0E0EB5DFF4D41E080810E9411
:1008E000C603D0E0FE01E15EFF4D609112208081E1
:1008F0000E94F40382E00E94B403C75EDF4D61E012
:1009000070E0088002C0660F771F0A94E2F7682B38
:1009100082E00E94F403DF91CF911F910F9108951F
:100920001F93CF93DF93C0EAD6E010E21E8380E5E9
:100930000E945C0583E70E945C051D83DF91CF91D7
:100940001F9108958DE10E94B403682F64608DE1CA
:100950000E94F4038DE10E94B40381110AC00E9439
:1009600090048DE10E94B403682F64608DE10E94C1
:10097000F4038CE10E94B403682F6F638CE10E9442
:10098000F40381E080933220089588232CF0682FAF
:1009900085E00E94F40308956FE785E00E94F40368
:1009A0000895882329F06FE381E00E94F4030895FD
:1009B00060E081E00E94F4030895CF93C82F86E0A1
:1009C0000E94B403897FC670682F6C2B86E00E945A
:1009D000F403CF910895CF93C82F86E00E94B4030B
:1009E000877D9C2F9872682F692B86E00E94F40304
:1009F00086E00E94B40391E0C81390E0892FCF9164
:100A00000895CF93C82F80E00E94B403837FCC70F9
:100A1000682F6C2B80E00E94F403CF910895682B1F
:100A200084E00E94F403089560E787E00E94F403E5
:100A300008958FE39CE90197F1F700C000006FE58E
:100A400084E00E94F40386E00E94DD0480E20E94BC
:100A5000EB04882319F081E08093132080E00E944A
:100A6000EB048CE00E94010560E08CE10E94F4033D
:100A70008CE40E94C5040E9414050E940E040E948A
:100A80001D040895E0E4F6E088E0818384E0828339
:100A900082E08183E0EAF6E080E2818380E4828381
:100AA00080E88183E0EAF8E088E1848380EC858354
:100AB000178281E0868308958093A008E0EAF8E039
:100AC000818186FFFDCFE0EAF8E081818064818347
:100AD00080810895FB01DC0102C001900D9241501C
:0A0AE0005040D8F70895F894FFCFB6
:100AEA0000010101010101010101010048764130C3
:100AFA003105200100010101010001020304051171
:0C0B0A0012131415160A0B0C0D0E0F0030
:00000001FF
