S00C0000636F64652E737265637D
S11300000C94FE000C941F010C941F010C941F010E
S11300100C941F010C941F010C941F010C941F01DC
S11300200C941F010C941F010C941F010C941F01CC
S11300300C941F010C941F010C941F010C941F01BC
S11300400C941F010C941F010C941F010C941F01AC
S11300500C941F010C941F010C941F010C941F019C
S11300600C941F010C941F010C941F010C941F018C
S11300700C941F010C941F010C941F010C941F017C
S11300800C941F010C941F010C941F010C941F016C
S11300900C941F010C941F010C941F010C941F015C
S11300A00C941F010C941F010C941F010C94680301
S11300B00C941F010C941F010C941F010C941F013C
S11300C00C941F010C941F010C941F010C941F012C
S11300D00C941F010C941F010C941F010C941F011C
S11300E00C941F010C941F010C941F010C941F010C
S11300F00C941F010C941F010C941F010C941F01FC
S11301000C943A030C941F010C9496030C941F0155
S11301100C941F010C941F010C941F010C941F01DB
S11301200C941F010C941F010C941F010C941F01CB
S11301300C941F010C941F010C941F010C941F01BB
S11301400C941F010C941F010C941F010C941F01AB
S11301500C941F010C941F010C941F010C941F019B
S11301600C941F010C941F010C941F010C941F018B
S11301700C941F010C941F010C941F010C941F017B
S11301800C941F010C941F010C941F010C941F016B
S11301900C941F010C941F010C941F010C941F015B
S11301A00C9430030C941F010C941F010C941F0138
S11301B00C941F010C941F010C941F010C941F013B
S11301C00C941F010C941F010C941F010C941F012B
S11301D00C941F010C941F010C941F010C941F011B
S11301E00C941F010C941F010C941F010C941F010B
S11301F00C941F010C941F010C941F0111241FBEA9
S1130200CFEFCDBFDFE5DEBF00E00CBF10E2A0E022
S1130210B0E2EAECFAE000E00BBF02C007900D92F6
S1130220A232B107D9F720E2A2E2B0E201C01D92E6
S1130230AE32B207E1F70E940A030C9463050C94F2
S11302400000E0E5F0E08BEC8283808188608083AD
S1130250818183FFFDCFE0E5F0E082EC858380813E
S113026080618083818184FFFDCF88ED84BF84E039
S113027080934000E0E5F0E080818E7F8083808180
S11302808D7F80830895CF93DF93C0E0D6E092E022
S11302909A8341E040932106A0E6B6E03FEF129630
S11302A03C931297E0E8F6E02FE02283198A8AE172
S11302B050968C93509751968C93519752968C9359
S11302C0529753968C93539754968C935497559670
S11302D08C93559756968C93569757968C9357971D
S11302E0808B818B828B838B848B858B868B878B96
S11302F09A8749871A963C931A9719969C93228752
S11303009187DF91CF91089583E08093A106E0E087
S1130310FBE08FE097E286A397A384E0808383E3E6
S1130320818310A611A612A613A68AE090E084A7E2
S113033095A70895E0E0F9E0108281E0868383E0E8
S113034081838FEF9FEF86A397A308950E949A015C
S11303500E94840108958FE99FE00197F1F700C09E
S11303600000809168068F3EC9F038F48F3BD1F0CD
S11303708F3DB1F08F37D1F417C08B3F59F018F48B
S1130380873F51F013C08D3F19F08E3F89F00EC0A6
S113039082E0089583E0089584E0089585E0089557
S11303A086E0089587E0089588E0089584E108953B
S11303B081E008958FE99FE00197F1F700C0000004
S11303C0809188068B3F59F018F4873F51F00BC099
S11303D08D3F19F08E3F49F006C080E008958AE011
S11303E008958BE008958DE0089589E008958A309A
S11303F009F066C085E0E0E0FBE02AEF30E020AFE2
S113040031AF4FEF53EF91E0415050409040E1F74E
S113041000C0000010AE11AE4FEF53EF91E0415019
S113042050409040E1F700C00000815041F79DC06A
S11304301092272085E0E0E0FBE02AEF30E022AFD5
S113044033AF4FEF57E893E1415050409040E1F70C
S113045000C0000012AE13AE4FEF57E893E14150D5
S113046050409040E1F700C00000815041F70895EA
S113047021919D91291388C0E417F507C9F785E0F8
S1130480E0E0FBE02AEF30E020AF31AF4FEF57E878
S113049093E1415050409040E1F700C0000010AE9D
S11304A011AE4FEF57E893E1415050409040E1F7CF
S11304B000C00000815041F71092272081E0089588
S11304C08B3021F41092272080E00895909127200A
S11304D0953011F41092272090912720E92FF0E015
S11304E0EE5DFF4D80839F5F90932720E0E0FBE06B
S11304F08AEF90E080AF91AF2FEF37E843E12150CE
S113050030404040E1F700C0000010AE11AE5FEF94
S113051027E833E1515020403040E1F700C00000AB
S113052080AF91AF4FEF57E883E141505040804096
S1130530E1F700C0000010AE11AE9FEF27E833E1F1
S1130540915020403040E1F700C0000082E008955F
S11305502091002090912220291316C0E1E0F0E2BE
S1130560A3E2B0E245E050E283CF4FEF53ED90E3D6
S1130570415050409040E1F700C000009091272086
S1130580953008F055CFE4CF0895813061F480931D
S113059025068AEF90E08093380B9093390B87E01F
S11305A0809300090895811102C0000008958AEF24
S11305B090E080933A0B90933B0B87E08093000983
S11305C008950E9432050E94090568E080E30E94B4
S11305D0FF0484E00E94CD0480E20E94DB048CE0EE
S11305E00E94F10486E30E94B50481E00E94C104E4
S11305F00E9492040E9404050E94FE030E940D04BE
S113060087E090E20E941C0467E070E280E00E94B0
S11306103A0408950E9421010E9443010E94A60108
S11306200E94E102E0E0FBE08AEF90E082AF93AF4A
S11306302FEF83ED90E3215080409040E1F700C01C
S1130640000012AE13AE809105209091062031E097
S113065020E002C0832F922F82309105E8F3FACF75
S11306601F920F920FB60F9211240F900FBE0F908E
S11306701F9018951F920F920FB60F9211240BB66C
S11306800F922F933F934F935F936F937F938F9327
S11306909F93AF93BF93EF93FF93F8940E94AB01A2
S11306A00E94F7010E94C5027894FF91EF91BF91D7
S11306B0AF919F918F917F916F915F914F913F91F6
S11306C02F910F900BBE0F900FBE0F901F90189597
S11306D01F920F920FB60F9211240BB60F922F9305
S11306E03F934F935F936F937F938F939F93AF93B6
S11306F0BF93EF93FF93F8940E94DA010E94F701ED
S11307000E94C5027894FF91EF91BF91AF919F91A0
S11307108F917F916F915F914F913F912F910F90A6
S11307200BBE0F900FBE0F901F9018951F920F9243
S11307300FB60F92112410920520109206200F90EC
S11307400FBE0F901F9018951F93CF93DF93C0EAAD
S1130750D6E010E21E838F710E944C058FEF0E9439
S11307604C051D83DF91CF911F910895DF92EF9285
S1130770FF920F931F93CF93DF937B01C42F90E2DB
S11307809093A6068F7180620E944C05D82E8FEF3D
S11307908C0FCC2369F0E701082F10E00F5F1F4F87
S11307A00E0D1F1D89910E944C05C017D107D1F76A
S11307B080E28093A5068D2DDF91CF911F910F913B
S11307C0FF90EF90DF900895FF920F931F93CF93C4
S11307D0DF93F62EC0EAD6E010E21E838F718062AA
S11307E00E944C05082F8F2D0E944C051D83802FDD
S11307F0DF91CF911F910F91FF9008951F93CF9395
S1130800DF93C0EAD6E010E21E8382EE0E944C051C
S11308101D83DF91CF911F9108951F93CF93DF9391
S1130820C0EAD6E010E21E8381EE0E944C051D83CF
S1130830DF91CF911F910895CF93DF93EC01409105
S11308400C20BC018AE00E94B60340910C20BE013A
S113085080E10E94B60360910D20603220F481E1B2
S11308600E94E40304C060E281E10E94E403DF919A
S1130870CF9108950F931F93CF93DF93C82F8B01CC
S1130880811108C040910C2050E088E290E20E945F
S11308905A0504C0873078F5823058F4EC2FF0E024
S11308A0E55EFF4D40910C20B80180810E94B603A3
S11308B008C0E82FF0E0E55EFF4D41E080810E9432
S11308C0B603D0E0FE01EB5EFF4D60910D20808108
S11308D00E94E40382E00E94A403C15FDF4D61E053
S11308E070E0088002C0660F771F0A94E2F7682B55
S11308F082E00E94E403DF91CF911F910F9108954C
S11309001F93CF93DF93C0EAD6E010E21E8380E505
S11309100E944C0583E70E944C051D83DF91CF9113
S11309201F9108958DE10E94A403682F64608DE1F6
S11309300E94E4038DE10E94A40381110AC00E9475
S113094080048DE10E94A403682F64608DE10E94FD
S1130950E4038CE10E94A403682F6F638CE10E947E
S1130960E40381E080932D20089588232CF0682FE0
S113097085E00E94E40308956FE785E00E94E403A4
S11309800895882329F06FE381E00E94E403089529
S113099060E081E00E94E4030895CF93C82F86E0CD
S11309A00E94A403897FC670682F6C2B86E00E9486
S11309B0E403CF910895CF93C82F86E00E94A40347
S11309C0877D9C2F9872682F692B86E00E94E40330
S11309D086E00E94A40391E0C81390E0892FCF9190
S11309E00895CF93C82F80E00E94A403837FCC7026
S11309F0682F6C2B80E00E94E403CF910895682B4C
S1130A0084E00E94E403089560E787E00E94E40321
S1130A1008958FE39CE90197F1F700C000006FE5AA
S1130A2084E00E94E40386E00E94CD0480E20E94F8
S1130A30DB04882319F081E080930E2080E00E947B
S1130A40DB048CE00E94F10460E08CE10E94E4038A
S1130A508CE40E94B5040E9404050E94FE030E94D7
S1130A600D040895E0E4F6E088E0818384E0828365
S1130A7082E08183E0EAF6E080E2818380E482839D
S1130A8080E88183E0EAF8E088E1848380EC858370
S1130A90178281E0868308958093A008E0EAF8E055
S1130AA0818186FFFDCFE0EAF8E081818064818363
S1130AB080810895FB01DC0102C001900D92415038
S10D0AC05040D8F70895F894FFCFD2
S1130ACA010101010101004876413031052001008C
S1130ADA01020304051112131415160A0B0C0D0E48
S1050AEA0F00F7
S9030000FC
