:100000000C9483010C94A4010C94A4010C94A401FD
:100010000C94A4010C94A4010C94A4010C94A401CC
:100020000C94A4010C94A4010C94A4010C94A401BC
:100030000C94A4010C94A4010C94A4010C94A401AC
:100040000C94A4010C94A4010C94A4010C94A4019C
:100050000C94A4010C94A4010C94A4010C94A4018C
:100060000C94A4010C94A4010C94A4010C94A4017C
:100070000C94A4010C94A4010C94A4010C94A4016C
:100080000C94A4010C94A4010C94A4010C94A4015C
:100090000C94A4010C94A4010C94A4010C94A4014C
:1000A0000C94A4010C94A4010C94A4010C94A4013C
:1000B0000C94A4010C94A4010C94A4010C94A4012C
:1000C0000C94A4010C94A4010C94A4010C94A4011C
:1000D0000C94A4010C94A4010C94A4010C94A4010C
:1000E0000C94A4010C94A4010C94A4010C94A401FC
:1000F0000C94A4010C94A4010C94A4010C94A401EC
:100100000C94A4010C94A4010C94A4010C94A401DB
:100110000C94A4010C94A4010C94A4010C94A401CB
:100120000C94A4010C94A4010C94A4010C94A401BB
:100130000C94A4010C94A4010C94A4010C94A401AB
:100140000C94A4010C94A4010C94A4010C94A4019B
:100150000C94A4010C94A4010C94A4010C94A4018B
:100160000C94A4010C94A4010C94A4010C94A4017B
:100170000C94A4010C94A4010C94A4010C94A4016B
:100180000C94A4010C94A4010C94A4010C94A4015B
:100190000C94A4010C94A4010C94A4010C94A4014B
:1001A0000C94A4010C94A4010C94A4010C94A4013B
:1001B0000C94A4010C94A4010C94A4010C94A4012B
:1001C0000C94A4010C94A4010C94A4010C94A4011B
:1001D0000C94A4010C94A4010C94A4010C94E603C7
:1001E0000C940E040C94A4010C94A4010C94A4018E
:1001F0000C94A4010C94A4010C94A4010C94C402CA
:100200000C9484026E616E00696E660000407A1084
:10021000F35A00A0724E18090010A5D4E80000E8B7
:100220007648170000E40B54020000CA9A3B000015
:1002300000E1F505000080969800000040420F00A4
:100240000000A08601000000102700000000E80365
:10025000000000006400000000000A000000000030
:100260000100000000002C76D888DC674F0823DFEF
:10027000C1DFAE59E1B1B796E5E3E453C63AE651C2
:10028000997696E8E6C28426EB898C9B62ED407CE9
:100290006FFCEFBC9C9F40F2BAA56FA5F490055A85
:1002A0002AF75C936B6CF9676DC11BFCE0E40D47AA
:1002B000FEF520E6B500D0ED902E030094357705CD
:1002C0000080841E080000204E0A000000C80C3385
:1002D0003333330F986E12831141EF8D2114893B14
:1002E000E65516CFFEE6DB18D1844B381BF77C1D94
:1002F000901DA4BBE424203284725E228100C9F1E7
:1003000024ECA1E53D2711241FBECFEFCDBFDFE5D3
:10031000DEBF00E00CBF10E2A0E0B0E2E8EFF7E1E2
:1003200000E00BBF02C007900D92A033B107D9F7D0
:1003300021E2A0E3B0E201C01D92A230B207E1F7D2
:100340000E94F9010C94FA0B0C940000E0E5F0E037
:100350008BEC8283808188608083818183FFFDCFE5
:10036000E0E5F0E082EC858380818061808381819B
:1003700084FFFDCF88ED84BF84E080934000E0E5FA
:10038000F0E080818E7F808380818D7F80830895DF
:1003900088E080930206E0E0F2E08FE181A380A391
:1003A00080E18283818383E0848381E08083089578
:1003B00081E080938106E0E0FAE083E1818384E0DC
:1003C00080838FE097E286A397A310A611A60895D5
:1003D000E0E0F2E080A1806880A383A180FFFDCFF0
:1003E000E0E0F2E024A135A193A1916093A3C901BB
:1003F000089560E078E488EE91E00E94E502789448
:100400008EE090E29F938F930E94880B0E94A6013A
:100410000E94C8010E94D80178940F900F9008E8BC
:1004200016E00F2E812CFAE09F2EF02D0F2EFAE110
:10043000EF2EF0E2FF2EF02D0E94E801EC01BC014E
:10044000990F880B990B0E94540526E636E64EEB71
:1004500050E40E940406D62EC72EB82EA92EDD2306
:1004600014F4C0E0D0E020E030E0A9010E94AC0428
:10047000882324F4D12CC12CB12CA12CF80180812B
:1004800080FD09C06D2D7C2D8B2D9A2D0E9423059A
:10049000F40160AF71AFAF92BF92CF92DF92DF9362
:1004A000CF93FF92EF920E94880B8FEF97E8E3E1E2
:1004B00081509040E040E1F700C000008DB79EB74A
:1004C00008968DBF9EBFB8CF8091952090919420C3
:1004D000891710F0891B08958C59891B0895CF93B3
:1004E000C09194200E9464028823E1F3EC2FF0E095
:1004F000E05DFF4D808191E09C0F943608F090E024
:1005000090939420CF9108950E946F0290E00895F7
:100510002091FB2091E0920F8091FA20943610F008
:100520009DE9920F891710F0891B08958C59891B3A
:1005300008950F931F93CF93DF93D82F00EA1BE00A
:10054000C1E202C0F801C3830E9488028823D1F36C
:100550008091FB20E82FF0E0EA56FF4DD0838F5FBB
:10056000843608F080E0E0EAF0E09281292F2E7FC7
:1005700022838093FB2081E28093A30B9283DF91FF
:10058000CF911F910F910895CF93DF93D82FCFEF85
:1005900003C0CC2391F0C1500E9488028823C9F384
:1005A000CC2371F0DA3019F48DE00E9499028D2F7E
:1005B0000E94990280E090E005C081E090E002C0D6
:1005C00081E090E0DF91CF9108954F925F926F921A
:1005D0007F928F929F92AF92BF92EF92FF920F9372
:1005E0001F93CF934B015C0107E010E0C9EFEE24AD
:1005F000E394F12CCC2354F5C501B4010E945205BB
:1006000020E030E041EE59E40E94B10420E030E007
:1006100040E85FE30E943F042B013C01B701002E3C
:1006200002C0660F771F0A94E2F7072E000C880BB2
:10063000990B0E9454059B01AC01C301B2010E94B9
:1006400004060E9471060E9423052CC0C501B40156
:100650000E94520520E030E041EE59E40E94B104CE
:100660002B013C0188279927801B910BB70102C001
:10067000660F771F8A95E2F7072E000C880B990BFF
:100680000E9454059B01AC01C301B2010E94B10458
:1006900020E030E040E85FE30E943F040E947106E2
:1006A0000E9423056115704138F0CF5F0150110998
:1006B000C83009F09FCF31C0CC237CF5C501B4010F
:1006C0000E94520520E030E041EE59E40E94B1045E
:1006D00020E030E040E85FE30E943F044B015C0112
:1006E0002C2F332721950CF4309561E070E002C087
:1006F000660F771F2A95E2F7072E000C880B990BDF
:100700000E9454059B01AC01C501B4010E9404067E
:100710000E9471060E9423052AC0C501B4010E94EF
:10072000520520E030E041EE59E40E94B1044B0153
:100730005C0161E070E00C2E02C0660F771F0A9426
:10074000E2F7072E000C880B990B0E9454059B01C1
:10075000AC01C501B4010E94B10420E030E040E8E2
:100760005FE30E943F040E9471060E942305E0EAB5
:10077000F6E088E1828B98E09583918394E0928300
:10078000E0EAFBE066837F70C295C07FC72BC7831A
:10079000848380E28383E0EAF0E082818360828365
:1007A000ECEFF0E280E090E2808391838283938398
:1007B000CF911F910F91FF90EF90BF90AF909F90BE
:1007C0008F907F906F905F904F9008951F920F923F
:1007D0000FB60F9211240BB60F928F939F93EF9346
:1007E000FF9380919520E82FF0E09091A00BE05DC1
:1007F000FF4D90838F5F843608F080E090919420C5
:10080000891380939520FF91EF919F918F910F9085
:100810000BBE0F900FBE0F901F9018951F920F9256
:100820000FB60F9211240BB60F922F938F939F93B5
:10083000EF93FF938091FA209091FB20891769F044
:10084000E82FF0E0EA56FF4D20812093A00B8F5F48
:10085000843608F080E0891304C080E28093A30B03
:10086000892F8093FA20FF91EF919F918F912F9183
:100870000F900BBE0F900FBE0F901F901895505801
:10088000BB27AA270E9457040C94CA050E94BC05E6
:1008900038F00E94C30520F039F49F3F19F426F484
:1008A0000C94B9050EF4E095E7FB0C94B305E92F21
:1008B0000E94DB0558F3BA17620773078407950790
:1008C00020F079F4A6F50C94FD050EF4E0950B2EBE
:1008D000BA2FA02D0B01B90190010C01CA01A00192
:1008E0001124FF27591B99F0593F50F4503E68F1ED
:1008F0001A16F040A22F232F342F4427585FF3CF2E
:10090000469537952795A795F0405395C9F77EF4FE
:100910001F16BA0B620B730B840BBAF09150A1F047
:10092000FF0FBB1F661F771F881FC2F70EC0BA0FCD
:10093000621F731F841F48F4879577956795B79555
:10094000F7959E3F08F0B0CF9395880F08F0992750
:10095000EE0F9795879508950E948F0508F481E022
:1009600008950E94C5040C94CA050E94C30558F05E
:100970000E94BC0540F029F45F3F29F00C94B305B8
:1009800051110C94FE050C94B9050E94DB0568F327
:100990009923B1F3552391F3951B550BBB27AA2738
:1009A00062177307840738F09F5F5F4F220F331F72
:1009B000441FAA1FA9F335D00E2E3AF0E0E832D03A
:1009C00091505040E695001CCAF72BD0FE2F29D03D
:1009D000660F771F881FBB1F261737074807AB070F
:1009E000B0E809F0BB0B802DBF01FF2793585F4F84
:1009F0003AF09E3F510578F00C94B3050C94FE0537
:100A00005F3FE4F3983ED4F3869577956795B79565
:100A1000F7959F5FC9F7880F911D9695879597F970
:100A20000895E1E0660F771F881FBB1F62177307E9
:100A30008407BA0720F0621B730B840BBA0BEE1FFE
:100A400088F7E09508950E94E30588F09F5798F095
:100A5000B92F9927B751B0F0E1F0660F771F881FC3
:100A6000991F1AF0BA95C9F714C0B13091F00E94DD
:100A7000FD05B1E008950C94FD05672F782F8827B8
:100A8000B85F39F0B93FCCF3869577956795B39504
:100A9000D9F73EF490958095709561957F4F8F4F73
:100AA0009F4F0895E89409C097FB3EF49095809578
:100AB000709561957F4F8F4F9F4F9923A9F0F92F24
:100AC00096E9BB279395F695879577956795B795A2
:100AD000F111F8CFFAF4BB0F11F460FF1BC06F5F88
:100AE0007F4F8F4F9F4F16C0882311F096E911C09A
:100AF000772321F09EE8872F762F05C0662371F0BB
:100B000096E8862F70E060E02AF09A95660F771FCE
:100B1000881FDAF7880F9695879597F90895990FAA
:100B20000008550FAA0BE0E8FEEF16161706E807B7
:100B3000F907C0F012161306E407F50798F0621BD8
:100B4000730B840B950B39F40A2661F0232B242BAD
:100B5000252B21F408950A2609F4A140A6958FEFCC
:100B6000811D811D089597F99F6780E870E060E01E
:100B700008959FEF80EC089500240A941616170636
:100B800018060906089500240A941216130614067E
:100B900005060895092E0394000C11F4882352F0E1
:100BA000BB0F40F4BF2B11F460FF04C06F5F7F4F99
:100BB0008F4F9F4F089557FD9058440F551F59F080
:100BC0005F3F71F04795880F97FB991F61F09F3F3A
:100BD00079F087950895121613061406551FF2CF63
:100BE0004695F1DF08C0161617061806991FF1CFB3
:100BF00086957105610508940895E894BB276627DA
:100C00007727CB0197F908950E9417060C94CA051F
:100C10000E94BC0538F00E94C30520F0952311F016
:100C20000C94B3050C94B90511240C94FE050E9494
:100C3000DB0570F3959FC1F3950F50E0551F629F40
:100C4000F001729FBB27F00DB11D639FAA27F00D25
:100C5000B11DAA1F649F6627B00DA11D661F829F4C
:100C60002227B00DA11D621F739FB00DA11D621F31
:100C7000839FA00D611D221F749F3327A00D611D4E
:100C8000231F849F600D211D822F762F6A2F112430
:100C90009F5750409AF0F1F088234AF0EE0FFF1F63
:100CA000BB1F661F771F881F91505040A9F79E3FBA
:100CB000510580F00C94B3050C94FE055F3FE4F3FE
:100CC000983ED4F3869577956795B795F795E79510
:100CD0009F5FC1F7FE2B880F911D9695879597F919
:100CE00008950E94E305E8F09E37E8F09639B8F4DD
:100CF0009E3848F4672F782F8827985FF9CF86951C
:100D00007795679593959539D0F3B62FB1706B0FA2
:100D1000711D811D20F487957795679593950C94A7
:100D200095060C94B0060C94FE05882371F4772385
:100D300021F09850872B762F07C0662311F499274E
:100D40000DC09051862B70E060E02AF09A95660FF6
:100D5000771F881FDAF7880F9695879597F908957A
:100D60009F3F31F0915020F4879577956795B7951F
:100D7000880F911D9695879597F908952F923F9228
:100D80004F925F926F927F928F929F92AF92BF929B
:100D9000CF92DF92EF92FF920F931F93CF93DF9347
:100DA000CDB7DEB76097CDBFDEBF7C011B016A0106
:100DB000FC0116821782838181FF44C39E012F5F4D
:100DC0003F4F3901F7019381F10193FD859193FF25
:100DD00081911F01882309F431C3853239F493FDD1
:100DE000859193FF81911F01853239F4B70190E01D
:100DF0000E944C0B56016501E5CF10E0512C912C5F
:100E0000FFE1F915D8F08B3279F038F4803279F0BF
:100E10008332A1F4F92DF0612EC08D3261F0803360
:100E200069F4292D21602DC0392D3260932E892D32
:100E30008460982E2AC0E92DE86015C097FC2DC06B
:100E400020ED280F2A3088F496FE06C03AE0139F62
:100E5000200D1124122F19C08AE0589E200D112454
:100E6000522EE92DE0629E2E10C08E3231F496FC97
:100E7000E5C2F92DF0649F2E08C08C3621F4292D8F
:100E80002068922E02C0883641F4F10193FD8591CD
:100E900093FF81911F018111B3CF9BEB980F93308A
:100EA00020F4992D9061805E07C09BE9980F9330E4
:100EB00008F066C1992D9F7E96FF16E09F73992ECC
:100EC000853619F49064992E08C0863621F4392F9E
:100ED0003068932E02C01111115097FE07C01C33C9
:100EE00050F444244394410E27E00BC0183038F0EE
:100EF00027E017E005C027E09CE3492E02C0212F20
:100F0000412C560184E0A80EB11CF601608171816C
:100F100082819381042DA3010E945E0A6C01F981F4
:100F2000FC87F0FF02C0F3FF06C091FC06C092FEF2
:100F300006C000E205C00DE203C00BE201C000E004
:100F40008C858C7019F001115AC29BC297FE10C09B
:100F50004C0CFC85F4FF04C08A81813309F44A9467
:100F6000141474F528E0241578F588E0482E2CC078
:100F700096FC2AC0812F90E08C159D059CF03CEFDB
:100F8000C3163FEFD30674F0892D8068982E0AC0EF
:100F9000E2E0F0E0EC0FFD1FE10FF11D80818033F6
:100FA00019F411501111F4CF97FE0EC0442443944C
:100FB000410E812F90E0C816D9062CF41C1904C0EC
:100FC0004424439401C010E097FE06C01C141D0485
:100FD00034F4C601019605C085E090E002C081E0CE
:100FE00090E001110196112331F0212F30E02F5FA5
:100FF0003F4F820F931F252D30E08217930714F483
:10100000581A01C0512C892D897049F4552039F0A6
:10101000B70180E290E00E944C0B5A94F7CF002376
:1010200029F0B701802F90E00E944C0B93FC09C07F
:10103000552039F0B70180E390E00E944C0B5A94A0
:10104000F7CF97FE4CC04601D7FE02C0812C912CF1
:10105000C60188199909F301E80FF91FED87FE878A
:101060009601241931092F87388B012F10E0119533
:10107000019511093FEF8316930629F4B7018EE21B
:1010800090E00E944C0BC814D9044CF08F859889CD
:101090008815990524F4ED85FE85818101C080E3E2
:1010A000F1E08F1A91082D853E852F5F3F4F2D87E8
:1010B0003E87801691062CF0B70190E00E944C0B01
:1010C000D9CFC814D90441F49A81963320F49533CA
:1010D00019F43C8534FF81E3B70190E04EC08A816A
:1010E000813319F09C859F7E9C87B70190E00E9418
:1010F0004C0B111105C094FC18C085E690E017C098
:10110000B7018EE290E00E944C0B1E5F82E001E08E
:10111000080FF301E80FF11D8081B70190E00E94F4
:101120004C0B802F0113F3CFE6CF85E490E0B7019D
:101130000E944C0BD7FC06C0C114D10441F4EC85CD
:10114000E4FF05C0D194C194D1088DE201C08BE2C7
:10115000B70190E00E944C0B80E32AE0C216D10454
:101160002CF08F5FFAE0CF1AD108F7CFB70190E0EB
:101170000E944C0BB701C601C0960E944C0B54C193
:10118000833631F0833779F0833509F056C020C0BB
:10119000560132E0A30EB11CF6018081898301E083
:1011A00010E0630112C05601F2E0AF0EB11CF6016F
:1011B000C080D18096FE03C0612F70E002C06FEF47
:1011C0007FEFC6010E94410B8C01F92DFF7714C0FF
:1011D000560122E0A20EB11CF601C080D18096FE1D
:1011E00003C0612F70E002C06FEF7FEFC6010E9465
:1011F000360B8C01F92DF0689F2EF3FD1AC0852D5A
:1012000090E008171907A8F4B70180E290E00E9467
:101210004C0B5A94F4CFF60197FC859197FE81917F
:101220006F01B70190E00E944C0B51105A9401508D
:1012300011090115110579F7F7C0843611F08936C7
:1012400061F5560197FE09C024E0A20EB11CF6011B
:1012500060817181828193810AC0F2E0AF0EB11C7E
:10126000F60160817181072E000C880B990BF92D16
:10127000FF769F2E97FF09C0909580957095619598
:101280007F4F8F4F9F4FF0689F2E2AE030E0A301E1
:101290000E949C0BC82EC6183FC0092D853721F42B
:1012A0000F7E2AE030E01DC0097F8F3691F018F4E0
:1012B000883559F0C3C0803719F0883711F0BEC0A7
:1012C000006104FF09C0046007C094FE08C0066006
:1012D00006C028E030E005C020E130E002C020E197
:1012E00032E0560107FF09C084E0A80EB11CF601E8
:1012F000608171818281938108C0F2E0AF0EB11CE0
:10130000F6016081718180E090E0A3010E949C0B56
:10131000C82EC6180F77902E96FE0BC0092D0E7F93
:10132000C11650F494FE0AC092FC08C0092D0E7E2E
:1013300005C0DC2C092D03C0DC2C01C0D12E04FF1C
:101340000DC0FE01EC0DF11D8081803311F4097E8A
:1013500009C002FF06C0D394D39404C0802F8678BE
:1013600009F0D39403FD11C000FF06C01C2DD51455
:1013700080F4150D1D190DC0D51458F4B70180E285
:1013800090E00E944C0BD394F7CFD51410F45D1865
:1013900001C0512C04FF10C0B70180E390E00E940F
:1013A0004C0B02FF17C001FD03C088E790E002C0AC
:1013B00088E590E0B7010CC0802F867859F001FFD6
:1013C00002C08BE201C080E207FD8DE2B70190E030
:1013D0000E944C0BC11638F4B70180E390E00E94E4
:1013E0004C0B1150F7CFCA94F301EC0DF11D808125
:1013F000B70190E00E944C0BC110F5CF15C0F4E08E
:10140000F51560F584E0581A93FE1FC0011127C03E
:101410002C8523FF2AC004E012E0392D3071932E71
:10142000F8018491811124C0552009F4E4CCB7015E
:1014300080E290E00E944C0B5A94F6CFF70186812F
:10144000978126C08FEF9FEF23C0B70180E290E025
:101450000E944C0B5A945110F8CFD8CF512CB701A1
:10146000802F90E00E944C0BD3CF08E012E0D5CF44
:1014700091108052B70190E00E944C0B0F5F1F4FFC
:10148000CFCF23E0251510F483E0BDCF512CC0CF82
:101490006096CDBFDEBFDF91CF911F910F91FF907E
:1014A000EF90DF90CF90BF90AF909F908F907F9004
:1014B0006F905F904F903F902F900895283008F0E4
:1014C00027E03327DA01990F311D87FD91600096DF
:1014D0006105710539F432602E5F3D9330E32A9542
:1014E000E1F708959F3F30F080387105610509F0FC
:1014F0003C5F3C5F3D93913008F08068911DDF9325
:10150000CF931F930F93FF92EF92192F987F969589
:10151000E92F96959695E90FFF27EA59FD4F9927F0
:101520003327EE24FF24A701E701059008940794D0
:1015300028F4360FE71EF81E491F511D660F771F4E
:10154000881F991F0694A1F70590079428F4E70EC9
:10155000F81E491F561FC11D770F881F991F661F50
:101560000694A1F70590079428F4F80E491F561F1A
:10157000C71FD11D880F991F661F771F0694A1F7FB
:101580000590079420F4490F561FC71FD81F990FC5
:10159000661F771F881F0694A9F78491109517700E
:1015A00041F0D695C79557954795F794E7941A95C6
:1015B000C1F7ECE0F2E068941590159135916591D2
:1015C000959105907FE27395E118F10A430B560B54
:1015D000C90BD009C0F7E10CF11E431F561FC91FEC
:1015E000D01D7EF4703311F48A95E6CFE894015053
:1015F00030F0080F0AF40027021708F4202F239573
:10160000022F7A3328F079E37D932A95E9F710C009
:101610007D932A9589F60694979567953795179542
:101620001794E118F10A430B560BC90BD00998F037
:1016300023957E9173957A3308F070E37C932013A1
:10164000B8F77E9170617D9330F0839571E37D935F
:1016500070E32A95E1F71124EF90FF900F911F910D
:10166000CF91DF91992787FD90950895FC01059012
:10167000615070400110D8F7809590958E0F9F1F94
:101680000895FC016150704001900110D8F78095D9
:1016900090958E0F9F1F08950F931F93CF93DF9305
:1016A000FB01238121FD03C08FEF9FEF2CC022FFA0
:1016B00016C046815781248135814217530744F46F
:1016C000A081B1819D012F5F3F4F208331838C9397
:1016D000268137812F5F3F4F2683378314C08B01CC
:1016E000EC01FB010084F185E02D1995892BE1F6D1
:1016F000D80116968D919C911797019616968D9309
:101700009C931797CE01DF91CF911F910F91089570
:10171000CF93DF93CDB7DEB7AE014A5F5F4FFA01DB
:1017200061917191AF018091FE209091FF200E9404
:10173000BE06DF91CF910895FA01AA27283051F112
:10174000203181F1E8946F936E7F6E5F7F4F8F4FF2
:101750009F4FAF4FB1E03ED0B4E03CD0670F781F51
:10176000891F9A1FA11D680F791F8A1F911DA11D36
:101770006A0F711D811D911DA11D20D009F468946F
:101780003F912AE0269F11243019305D3193DEF617
:10179000CF010895462F4770405D4193B3E00FD0CD
:1017A000C9F7F6CF462F4F70405D4A3318F0495DB8
:1017B00031FD4052419302D0A9F7EACFB4E0A6959B
:1017C0009795879577956795BA95C9F700976105BD
:1017D000710508959B01AC010A2E06945795479513
:1017E00037952795BA95C9F7620F731F841F951F08
:0817F000A01D0895F894FFCF3D
:1017F8000000000300000000C402840200001B5B1C
:10180800481B5B324A1B5B334A007265733A2025DA
:1018180064202070776D3A20252E3166200A00005A
:00000001FF
